:10100000802A0020AD2B00007F880000992B000073
:10101000992B0000992B0000992B00000000000084
:10102000000000000000000000000000712C000023
:10103000992B000000000000112C0000992B0000EB
:10104000312E0000312E0000312E0000312E000024
:10105000312E0000312E0000312E0000312E000014
:10106000312E0000312E0000312E0000312E000004
:10107000312E0000312E0000312E0000312E0000F4
:10108000312E0000312E0000312E0000312E0000E4
:10109000312E0000312E0000312E0000312E0000D4
:1010A000312E0000312E0000312E0000312E0000C4
:1010B000312E0000312E0000312E0000312E0000B4
:1010C000312E0000312E0000312E0000312E0000A4
:1010D000312E0000312E0000312E0000312E000094
:1010E000312E0000312E0000312E0000312E000084
:1010F000312E0000312E0000312E0000312E000074
:1011000053B94AB9002908BF00281CBF4FF0FF316E
:101110004FF0FF3000F00CB8ADF1080C6DE904CED3
:1011200000F010F8DDF804E0DDE9022304B07047B8
:10113000704700BF034613F8012B002AFBD1181A91
:10114000013870472DE9F04786468C460846089ED0
:10115000154674461946002B40F0C2808542B2FA0B
:1011600082F245D94AB1C2F1200300FA02FC2EFAFC
:1011700003F3954043EA0C0C94404FEA154EA8B295
:10118000BCFBFEF8230C0EFB18CC08FB00F943EA6D
:101190000C43994528D9EB1808F1FF3704D299453B
:1011A00002D9A8F102072B44A3EB0903A4B2B3FBB5
:1011B000FEFC0EFB1C330CFB00F044EA0344A0428F
:1011C00014D92C190CF1FF3304D2A04202D9ACF18E
:1011D00002032C44241A43EA07401EB1D4400023E2
:1011E00034607360BDE8F0874746DDE76346F1E7AA
:1011F00092BB431B01214FEA154EAFB2B3FBFEFC7D
:10120000200C0EFB1C330CFB07F840EA0343984507
:1012100062D9EB180CF1FF3004D2984502D9ACF139
:1012200002002B44A3EB0803A4B2B3FBFEFC0EFBAD
:101230001C330CFB07F744EA0344A7424ED92C1990
:101240000CF1FF3304D2A74202D9ACF102032C44C3
:10125000E41B43EA0040C0E7C2F1200320FA03F197
:10126000954090402EFA03F303434FEA154EAFB278
:10127000B1FBFEFC0EFB1C10190C0CFB07F841EA3D
:101280000041884504FA02F422D969180CF1FF30B4
:1012900004D2884502D9ACF102002944A1EB08012F
:1012A0009BB2B1FBFEFC0EFB1C110CFB07F743EAE3
:1012B00001439F420ED9EB180CF1FF3104D29F423B
:1012C00002D9ACF102012B44DB1B41EA004192E759
:1012D0006046E3E76146F7E76046A3E76346B7E7A2
:1012E000834206D916B9002108467BE7C6E900E02B
:1012F000F9E7B3FA83F78FB9834201D3724508D86F
:10130000BEEB020460EB030301209C461EB90021E2
:1013100068E73846FAE7C6E9004CF8E7C7F1200C61
:10132000BB4022FA0CF41C432EFA0CF120FA0CF309
:10133000B84001434FEA14490EFA07F5B3FBF9F838
:101340001FFA84FE09FB18300B0C08FB0EFA43EA67
:1013500000439A4502FA07F240D9E31808F1FF303A
:1013600004D29A4502D9A8F102002344A3EB0A0350
:1013700089B2B3FBF9F809FB183308FB0EFE41EA0A
:1013800003418E452CD9611808F1FF3304D28E45F4
:1013900002D9A8F10203214443EA0040A0FB0298CD
:1013A000A1EB0E014145CE46434602D306D14D4541
:1013B00004D2B9EB020E68EB04030138002EA6D06C
:1013C000B5EB0E0261EB030101FA0CFC22FA07F304
:1013D0004CEA0303F940C6E9003198E74046C5E707
:1013E0004346D9E738B5144C204607F0FEFD20B936
:1013F000BDE83840114806F039BB2269A16813687E
:1014000043F0400313600B680D4A062120469847BD
:10141000A56840216B6920469847002140F6CD40E1
:1014200008F020F840216B6920469847002140F6DB
:10143000CD4008F017F8EBE79C980000449C0000B2
:1014400001000600014B1B68184700BFB0000020D8
:10145000014B1860704700BFB000002030B585B068
:1014600004460D4610220021684608F0A4F9022324
:101470008DF802302A46044B01932146684606F057
:1014800015FB05B030BD00BF4514000080B5054612
:101490000E461746984606F027F8034608F094F9DA
:1014A000DFF81890044649F8003042463046394685
:1014B000A84754F8090001F095FB00BF08000000A0
:1014C0002DE9F047058B04462807904611D40229E0
:1014D00005F0070540F0CC80204606F033FF78B1D8
:1014E0000138218B042811D8DFE800F0C2106D8587
:1014F000950001290CBF45F0100545F02005258316
:1015000088F31188BFF36F8FBDE8F08701F0070AF9
:10151000AA4500F0A5800027B9463E46A368002BE7
:1015200000F0BC8041F00801218388F31188BFF3EB
:101530006F8FA168002900F0BA800D68002900F0C3
:10154000B680D1F80480334652462046C047002D6D
:1015500076D02B6829461D46F0E701F007035A1F95
:10156000012A1BD8002221F00701062B276889B227
:10157000C4E9002209D13B4603E0628B0132628359
:101580001B68002BF9D141F002012183204606F0AF
:10159000D9FE00287AD041F0200176E0042B0AD150
:1015A00021F0070189B22183204606F0CBFE10B15D
:1015B00041F020012183218B01F0070AAA454FD079
:1015C0000027B946AAE7236921F0070141F0060187
:1015D000062DD3F8009021832DD1B9F1000F3FD013
:1015E00041F00801218388F31188BFF36F8F3A49D6
:1015F0002046C84729E021F00701236941F0040192
:1016000089B2042DD3F804902183E6D000273E460A
:101610004FF0040A82E721F00701236941F0050138
:1016200089B2052DD3F808902183D6D000273E46F5
:101630004FF0050A72E700273E464FF0060A6DE7B5
:101640002B4687E7B9F1000FD1D1EFF311882023A2
:1016500083F31288BFF36F8F238B23F00803238358
:10166000258BEA062ED525F01003238305F0070508
:101670006669218B002EBFF670AF00232768C4E98E
:10168000003321F0070141F001012183218B01F09A
:10169000070AAA454FF000097FF440AF002F9CD005
:1016A00041F00801218388F31188BFF36F8F002F69
:1016B000C8D03D68394633465246204606F06EFE95
:1016C0002F46F4E7AB067FF51BAF25F020032383FD
:1016D00005F0070500E700BFC9830000014B036068
:1016E00000207047689B0000F0B40C4B0C4E5F6A02
:1016F0000C4BB34203D36FF08500F0BC70475D68BC
:10170000BD4209D31C693CB195F802C00579AC45CE
:1017100002D12346F0BC18472433EAE780060020B4
:10172000DC020020B80200202DE9F047134CDFF85E
:101730005080DFF8509005460E461746444503D3C7
:101740006FF08500BDE8F0876268D9F824309A42CE
:1017500012D3A36983B190782979884205D13A469A
:1017600031462846BDE8F04718475279012A03D18F
:101770003A463146284698472434DFE7B80200202D
:10178000DC020020800600202DE9F0410B4CDFF840
:10179000308005460E461746444502D36FF085005B
:1017A00009E063690BB92434F6E73A463146284626
:1017B00098470028F7D1BDE8F08100BFB8020020AB
:1017C000DC02002010B5044607F0C8F810F1780FCD
:1017D00000D050B9054A204606F05CFFD2F8C4306C
:1017E00023EA0003C2F8C430002010BD80060020A8
:1017F000024B00221A605A60704700BF3B0700206E
:1018000070B50B4B0B4CA34201D3002070BD196A7D
:101810001E7F00220439D5B2AE4201D82433F2E74C
:10182000013211F832508542F5D10120EEE700BFB8
:10183000B8020020DC02002008B509480378C3F391
:1018400041130A3350F823303BB100F1080200F194
:1018500010019847C043C00F08BD1846FCE700BF01
:101860008006002004282DE9F14FDFF89890044607
:101870000F4616D001282DD1DFF88C8098F8B930AA
:1018800043B300F0D7FD214D4D4520D2D5F820B00F
:101890004FF0000A2B7F5FFA8AF6B34204D8243552
:1018A000F2E7FFF7A5FFE7E70BEBC6060AF1010A2F
:1018B000307907F053F80246307906F0EBFED8F89D
:1018C000C430002A23EA0003C8F8C430E2DA002357
:1018D00088F8B9300D4D4D4508D30B4B1B6A6BB1E1
:1018E0003946204601B0BDE8F04F1847EB681BB100
:1018F0003A462146284698472435ECE701B0BDE832
:10190000F08F00BFDC02002080060020B80200201B
:1019100073B5C4B263060D468DF8074007D0204664
:10192000FFF76EFF78B10D4B93F8BA0058B10B4E2C
:10193000204655B102F04AF8F3691BB10DF10701D9
:1019400008209847012002B070BD02F067F8F369E3
:10195000002BF7D00DF107010920F2E780060020E7
:1019600073B586788DF80060037942791C4C43EAA0
:101970000223ADF80230C378304603F003038DF83C
:10198000043006F087FED4F8C430184205460BD068
:10199000304600F031FD3046FFF714FF07F0C2FC7F
:1019A00010B9962005F05EFD684601F0EBFF10F1DE
:1019B000780F03D010B1002002B070BD9DF8000078
:1019C00002F068F810F1780F01D00028F3D1D4F8B4
:1019D000C43001202B4384F8B900C4F8C430EBE7CD
:1019E000800600202DE9F047924DAB6904460E4673
:1019F0001746C3B9207800F01F00012876D00228CE
:101A000000F0DC8000BB94F900103A68637800298C
:101A10002EDA062B0CD0082B25D0ABB9537001233E
:101A20001370022303E198470028E3D100200DE062
:101A30006388190A0A1F012A8C4605D9072903D889
:101A4000DAB26B6A1C781CB96FF01500BDE8F0873C
:101A50005D78654503D1824200F0E4800130234483
:101A6000F0E71B78E3E095F8BA3013700123DEE06D
:101A7000052B11D0092BE7D163886E6A002B32D178
:101A8000FFF7B6FE638885F8BA30EB69002BCDD03E
:101A9000694903209847C9E7A07801F061FF002851
:101AA000C4D0D1E77378042B10D0052B11D0022BB2
:101AB00004D177796388BB4208BF012033781E4484
:101AC0003378002BEED10028BED0D9E796F80380FA
:101AD000F4E76388BB42F1D1B8F1000FEED1304694
:101AE000FFF73EFFEAE7FF27B846E9E795F8BA3087
:101AF000D7F800C0002BA7D06F6AA28894F804E042
:101B00003B46187800289FD05978022904D193F8D1
:101B10000480F04500F292800344F2E78CF8003034
:101B20008CF80130316081E71F4493E00B2B8BD19F
:101B300000264FF0FF08C146B24606E07B78042B32
:101B40000FD0052B21D03B781F443B78002BF5D1DB
:101B5000EB6913B1514607209847002E7FF466AF1A
:101B600072E797F80280A38897F803909845EAD126
:101B700063889945E7D1B8F1070F1CD805EB080336
:101B8000BA4683F8BB900126DDE7A3884345DAD146
:101B9000A3784B450AD0BE78304600F02DFC304685
:101BA000FFF710FEB0FA80F67609CCE73846FFF76B
:101BB000D7FE0646C7E7BA460026C4E794F90020D8
:101BC0006378002A18DA002B7FF43EAF24793F684F
:101BD00063060AD02046FFF713FE00283FF434AF17
:101BE00095F8BA30002B3FF42FAF3946204601F06C
:101BF00035FF00237B7014E7012B08D0032B7FF403
:101C000023AF6388002B7FF41FAF012103E06188BD
:101C100000297FF419AFA088FFF77AFE00287FF42F
:101C200005AF11E702293B607FF41BAF5B8833608F
:101C3000FCE600BF800600203A07002094F900006F
:101C400063780028BFF672AF002B3FF467AF0A2B12
:101C50007FF4FAAE3B78002B3FF4F6AE7978042996
:101C60007FF462AFB9788A427FF45EAF072A96BFED
:101C70005219002392F8BB308CF80030F6E600BF12
:101C800013B5164C237DF3B9E268A168019201AB4C
:101C9000802006F00DFD019AA3681344A360E36859
:101CA0009B1AE3606BB962B12369E2889A4208DD4E
:101CB00094F8C82093FBF2F102FB11330BB9012316
:101CC000237502B010BD00231A46194680202375E3
:101CD00002B0BDE8104001F007BF00BF8006002041
:101CE00030B585B0002302460D460193002858D137
:101CF000002935D108220B460DEB020106F047FE04
:101D0000002804DA802001F061FE05B030BD2A4CC5
:101D1000029A2260039A626004F13802A2609DF97F
:101D20000820BDF80E302575002AC4E903550ADBEA
:101D3000802B04D9802001F049FE0020E3E713B195
:101D4000C4E90333E1E7FFF777FD0028DAD0E28842
:101D500023699A42D4BFE260E360FFF791FFD4E7C2
:101D6000154CD4E90215002D01AB04DC06F00FFE82
:101D70000028CADAC6E72A4606F009FE0028D9DBA1
:101D8000019AA3681344A360E3689B1AE360002BE5
:101D9000BBD104F13803A360FFF74EFD0028DCD16E
:101DA000B0E78028B1D1044BDA68002AD5D11B7D79
:101DB000002BD2D1A9E700BF80060020054B064AC0
:101DC0009A62064ADA62064A1A63064A58629A61B9
:101DD0000020704780060020E5190000E916000089
:101DE00089170000291700002DE9F3410446474DEB
:101DF00047484FF0FF334FF0FF3204F0B1FD95F844
:101E0000B830002B7BD16B6A83B142482C62E86109
:101E10006E6A01F083FF01F071FD041E10DA3C4888
:101E200004F016FE204602B0BDE8F08100F0BEF8D6
:101E3000FFF7C4FF6B6A002BE7D14FF0FF34EEE7EA
:101E400000F01AFB041EEADB7378012B5AD1F379F8
:101E5000002B57D00026684685F8C830ADF8023010
:101E60008DF804608DF8006001F08CFD041ED6DB57
:101E7000802768468DF8007001F084FD041ECEDBDB
:101E80002549304601F036FF041EC8DB224938469A
:101E900001F030FF041EC2DB204CDFF88480444593
:101EA0001AD3002001F0F6FD041EB8DBD5F8C430CB
:101EB000802043F00103C5F8C43001F0EBFD041E9F
:101EC000ADDBD5F8C43043F48033C5F8C43001230A
:101ED00085F8B8300024A2E7276A0026227FF3B2F3
:101EE0009A4201D82434DAE707EBC30257F83310DB
:101EF000107901F0FFFE01360028EFD09DE76FF06A
:101F000077048CE76FF0150489E700BF8006002096
:101F1000E001002065180000E11C0000B80200206C
:101F2000DC02002030B51F4B8BB005AA03F1100571
:101F300018685968144603C40833AB422246F7D1E7
:101F40001B7823701022002101A807F034FC122214
:101F50000021154807F02FFC102101A806F01AFEF9
:101F600000281BDD0828B8BF0820093801AB0E493E
:101F70001A18002012F8013F0AAC04EB131403F006
:101F80000F0328336B44013014F8144C13F8143C3D
:101F90000C7008284B7001F10201EBD102480BB024
:101FA00030BD00BF729C0000D91300202DE9F04F16
:101FB000724B93F800B087B0BBF1000F03D07048AC
:101FC00007B0BDE8F08F6E4C00264FF0011AB04606
:101FD0003546B14623783BB96A4B02349C42F3D173
:101FE000664A01231370EAE76378052B1BD8DFE804
:101FF00003F08E03C38E1D39402304A88DF810B062
:10200000ADF812308DF814B006F093FC40B10823FF
:1020100004A8ADF8123006F08CFC08B1ADF812B08F
:10202000BDF81230E37123781C44D3E7E378002B2A
:10203000F9D1A3786BB108F101085FFA88F8F2E7EB
:102040006B689C4207D024354F4B9D42F8D300204B
:10205000B6E74E4DF8E7AB68002BECD04146204682
:102060009847E8E7002DF2D000222B7F9A42EED26B
:10207000296AA07801EBC2010B79984201D00132A4
:10208000F3E70127E07800F003008DF814002079D1
:1020900094F805C040EA0C20ADF8120094F9020053
:1020A0000028FBB228DA07F110004FF0010C0CFAFF
:1020B00000F010EA0A0F26D143F080008DF81000DE
:1020C00004A8CDE90213019206F033FCDDE90121F9
:1020D000039BC0B99DF81020A27012F0800F18BFAA
:1020E00010330A7118BFDBB24FF0010214BF9A40DF
:1020F000BA404AEA020A96E70120B84010EA0A0FFD
:1021000001D11846DAE70137102FBBD1B7E7032E0C
:102110001AD1FFF707FF074650B1FFF70BF8024649
:1021200030B11028A8BF10223946A01C07F035FB9B
:1021300023786FF00201E218091B04EB5303D1422C
:1021400013D50136F6B26EE7002EF1D1B9F1000FCA
:102150003FF47DAFA4EB090389F80230C3F30723F2
:1021600089F8033089F80480EBE702F801BC13F822
:10217000010902F8020DE2E7A14654E7D813002056
:1021800014020020B7020020DC020020B802002068
:1021900010B5094B00211A461C78844204D15C68B2
:1021A00014B102EB811010BD0131042903F1400389
:1021B000F2D10020F7E700BF4C0700202DE9F341E2
:1021C00050F8283C10F82C6C103304460AD10369EF
:1021D00050F8202C980736D5D2B9590715D50023C9
:1021E00044F8283C54F8283C10330BD054E90775C8
:1021F00054F8148C07F096F800284FD02E4821464A
:1022000007F074F802B0BDE8F08143F004032361E5
:1022100054F8241C01AB304606F04AFA10B16FF0B6
:102220001503DDE7019A54F8243C134444F8243C98
:1022300054F8203C9B1A44F8203C54F81C3C1344AE
:1022400044F81C3CCEE754F8241C01AB304601F0A6
:10225000C7FC0028E3D1019D54F8243C2B4444F8EA
:10226000243C54F8203C5B1B44F8203C54F81C3CB4
:102270002B4444F81C3C002DB1D0304601F054FDF5
:10228000B5FBF0F303FB1055002DA8D154F8203C0A
:10229000002BA4D0304601F0EBFCA3E744F8180C67
:1022A000A4F1100004F056FC002DABD04246394694
:1022B0003046A847A6E700BFE00200204B1E012BD6
:1022C00073B506460D460FD8FFF762FF044668B99E
:1022D000012D09D101AB01220DF10301304601F0BE
:1022E0007FFC019B002BF5D102B070BD07F01AF8FE
:1022F00004F12C0108B1012D05D1084602B0BDE85A
:102300007040FFF75BBF034802B0BDE8704006F0C5
:10231000EDBF00BFE00200202DE9F74F0646019116
:102320001546984606F00FFA044600285BD1EFF3F5
:10233000118A202383F31288BFF36F8FDFF8ACB0CC
:1023400000220023584604F039FC70B9DFF8A09051
:10235000A70109EB8414636813F1100F14D10193E2
:10236000584604F0F7FB019B06E00134042C0BF106
:10237000400BE5D16FF00B038AF31188BFF36F8F29
:10238000184603B0BDE8F08F019B2061C4E9023517
:102390000C9B63610D9BA36130466FF00F0309F83E
:1023A0000760C4F83C80636001F0BEFC58B1304661
:1023B00001F0BAFCB5FBF0F303FB10551DB1E36B64
:1023C00043F00403E36318F0020F07D007F12C0178
:1023D0000848494406F08AFF0023CDE7304601F063
:1023E00047FC0346C8E76FF00F03C9E76807002002
:1023F0004C070020E002002010B5EFF311842023E9
:1024000083F31288BFF36F8FFFF7C2FE50B14368AA
:10241000103307D16FF08B03436000F12C010448A7
:1024200006F064FF84F31188BFF36F8F10BD00BF07
:10243000E0020020F8B50E4C04252027EFF31186AA
:1024400087F31288BFF36F8F6368103307D16FF083
:102450008B030848636004F12C0106F047FF86F304
:102460001188BFF36F8F013D04F14004E6D1F8BD40
:102470004C070020E002002070B50A4C0A4E0025EF
:102480003146204606F016FF0122A4F11000114645
:10249000013506F0D3FE042D04F14004F0D10020F4
:1024A00070BD00BF78070020BD2100000169012335
:1024B00081F84B300B6833B191F849301BB10248B9
:1024C000083106F013BF7047E002002001690123C4
:1024D00081F84A300B6833B191F848301BB102489B
:1024E000083106F003BF7047E002002070B50569AF
:1024F000EFF31186202383F31288BFF36F8FD5F893
:10250000900006F084F8044686F31188BFF36F8FBD
:1025100030B104480022002305F1180104F0B2FC98
:10252000204670BDE002002070B5012382F84830DB
:1025300013680D4614463BB192F84A3023B10E4859
:1025400002F1080106F0D2FED4F890305A89DB88F7
:102550009A4205D17DB904F1180140F6CD4204E05C
:1025600004F11801002DF8D00022BDE870400248A7
:10257000002304F087BC70BDE002002070B5044663
:102580000E4601791548154606F0B9F810B394F9CE
:1025900000206378002A16DB202B04D0222B0ED0DB
:1025A0006FF085000AE02B681A6840F8102C9A88B2
:1025B00020F80C2C9B7900F80A3C002070BD638841
:1025C00000F8093CF9E7212BEAD1103807232860ED
:1025D0003360F2E76FF01200F0E700BF4C08002014
:1025E00008B50146034806F098F810B1012300F839
:1025F000073C08BD4C0800200D4A03460021A0F806
:1026000048101068C3F8940090889279A3F8980055
:1026100083F89A2083F89C1083F89B10A3F89E10EF
:1026200083F8A010402203F14C0007F0C4B800BFAB
:10263000589B000010B504690023C4F8A8300C4B67
:10264000C4F8A400596804F1A80269B9C3E90022DA
:1026500004F10800074906F02DFE04F118000649B0
:1026600006F054FE002010BD0A605A60F0E700BF7B
:102670004C08002071870000ED26000073B5046946
:102680008DF80710002384F848302025EFF31186D9
:1026900085F31288BFF36F8F0122D4F890000DF1FB
:1026A000070105F0B4FF86F31188BFF36F8F01288F
:1026B0000AD006F037FE10B994F8A1306BB9094B77
:1026C0001A780AB901221A702122002304F1180194
:1026D000054804F0D7FB02B070BD0021212006F0B0
:1026E000C1FED3E7EB130020E0020020F0B5D0F8E4
:1026F0008C305B681B6A1F7D85B00546384606F046
:1027000022F8064650BB95F886303BB3A86F0146C9
:10271000C38831F80A2F9B1A9BB2B3F5806F28BF8C
:102720004FF4806303AA05F023FF0446B0B183068B
:10273000A5F1180308BF00F1FF3485F8306001935C
:10274000074B03990093224602233846FFF7E4FD26
:10275000A86F224600F10A0105F040FF05B0F0BD68
:102760002925000037B514460A1E054621DDD4F898
:102770008C0004F14C0105F04AFF012384F8493034
:1027800023683BB194F84B3023B1114804F10801A0
:1027900006F0ACFDD4F88C209388918912695B1AFD
:1027A0009BB2D31A3F2B04D8012384F8A03003B086
:1027B00030BD94F89E30002BF9D0064B0093019465
:1027C0000123402204F14C012846FFF7A5FDEEE766
:1027D000E002002065270000F7B50D4601461D48C0
:1027E00005F081FF044610B30646691E56F8A43969
:1027F0005F6805291BD8DFE801F01C1A031C22269C
:1028000010F8061C99B9012300F8063C3B6A3246D1
:10281000187BFFF7A7FF14F85C2C42B93B6A187DC0
:102820000D4B0093019602231146FFF775FD03B08F
:10283000F0BD304603B0BDE8F040FFF7DDBE012338
:1028400004F8053CF3E710F8053C002BEFD000231B
:10285000F6E700BF4C0800202925000037B5094DD8
:102860000949002400944FF0FF334FF4806228465A
:1028700004F0CAFA0549284606F05AFD204603B07E
:1028800030BD00BFE002002040140020969C0000F4
:1028900030BFFFF7FDBF00BF2DE9F0410B4EDFF861
:1028A000308006EB0807CC1B054632460949204616
:1028B00006F073FFA01942460021083C06F07BFF9A
:1028C0002C6707F10800BDE8F08100BF00000000A0
:1028D00004000000449B0000054B5A699B689A4223
:1028E0001FBF044A536843F080535360704700BFD2
:1028F000A013002000ED00E070B5264B15469A6A43
:1029000012F0100F9A6A14BF1124102412F0080F4D
:102910009A6A18BF1224920706460AD5586B9A6A1B
:10292000140634D519B19A6A22F080029A621324EF
:1029300001E06FF01500174B9A6A12F0010F9A6AC6
:1029400018BF142412F0200F9A6A18BF1524D2065B
:1029500002D49B6A9B070AD50E4B5B68190506D506
:10296000314600F01FFA10B180F309880224094BA8
:102970009A6A920642BF5A6A22F400525A629A6ACE
:1029800042F0FF029A6200232B70204670BD6FF068
:102990001500CCE700ED00E0134B9A6A12F0007FBF
:1029A0009A6A14BF1E201D2012F0807F9A6A18BFF9
:1029B0001F2012F4002F9A6A18BF212012F4802FD2
:1029C0009A6A18BF222012F4003F9A6A18BF232087
:1029D00012F4803F9A6A6FEA02426FEA12429A62E8
:1029E00018BF2420704700BF00ED00E010B5194B60
:1029F0000246986A9C6A10F4805F14BF1720162064
:102A000014F4006F9C6A18BF1820A40509D5986BB0
:102A1000986A000404D51AB19A6A22F400429A62B4
:102A200019200C4B9A6A12F4806F9A6A18BF1A2008
:102A3000D2050CD49B6A13F4005F18BF1C20054A12
:102A4000936A43F47F43936200230B7010BD1B20F5
:102A5000F5E700BF00ED00E0F0B5484B5B688BB0D8
:102A60000446C3F30803002585F31188BFF36F8F75
:102A700002F07F40B0F17F4F11D102F00C00082826
:102A80000DD010074CBF0C4601250022033B8DF8EA
:102A90000720032B05D8DFE803F0246367602C468A
:102AA000F3E700239DF80720CAB902AE04F120071E
:102AB00020686168324603C20834BC421646F7D12A
:102AC000099A002D54D0C2F3080121B96FEA5222AD
:102AD0006FEA4222099202A9184605F0C6FE0BB021
:102AE000F0BD264BDA6A9107DBD4DA6A002AD8DB1C
:102AF000DA6A5200D5D55A69A16942F480725A61E6
:102B0000BFF34F8FBFF36F8F5A6931F8021C22F465
:102B100080725A61BFF34F8FBFF36F8F4DF6027211
:102B200091420AD09A6AD2B24AB10DF1070201214C
:102B30002046FFF7E1FE0346B4E72368B2E79A6A4E
:102B400012F47F4F05D00DF107010120FFF74EFF72
:102B5000F1E79B6AB3F5803FA3D3FFF71DFFEAE7D8
:102B60000DF107020021E3E70DF107010020EDE779
:102B700022F4FF7222F00102ACE700BF00ED00E09A
:102B8000044B5A6942F010025A615A6922F0080255
:102B90005A61704700ED00E0EFF30880EFF3098120
:102BA00001B57246FFF758FF01BD00BF0B4880F327
:102BB000088802F077FE202080F3118808484FF43F
:102BC0000461401880F30988EFF314800221084360
:102BD00080F31488BFF36F8F00F0A4F8802A0020E0
:102BE000C01C0020084B9B6883420BD1EFF3058388
:102BF00043B1064B5A6842F080525A605A6A22F436
:102C000000425A6204F076BCA013002000ED00E000
:102C100014498A684FF030001044EFF3098C80E8C3
:102C2000F01F202080F31288BFF36F8F0E4F4FF0FC
:102C300000664A698A603E60106F0C4C2060506FDD
:102C40000023536780F3118804B5104600F00EF995
:102C5000BDE8044002F1300090E8F01F8CF30988D1
:102C600070470000A013002004ED00E0540800208D
:102C70001EF0040F0CBFEFF30880EFF309808169A9
:102C800011F8021C0229FFD001B5724605F0F3FDD0
:102C900001BD00BF40B2002807DB044A41090123FF
:102CA00000F01F00834042F82130704700E100E04F
:102CB00040B200280CDB4309064900F01F00203316
:102CC0000122824041F82320BFF34F8FBFF36F8F63
:102CD000704700BF00E100E0054B420900F01F0013
:102CE00053F82220012303FA00F01040704700BF80
:102CF00000E100E040B20028A8BF00F1604001F10F
:102D00000101B8BF064B4FEA4111ACBF00F561406D
:102D100000F00F00C9B2B4BF195480F80013704717
:102D200014ED00E00F4A08B50F4B22F07F029A60C5
:102D3000BFF34F8FBFF36F8FD3F8882022F4700258
:102D4000C3F88820EFF3148323F0040383F314887B
:102D5000BFF36F8F03F018FD04F000FD00F05CF886
:102D600003F056FD0010000000ED00E042F8203CAA
:102D7000009B42F81C3C0A49019B42F8183C029B0C
:102D800042F8143C21F001014FF0807342F8043CFA
:102D900042F8081C0023203A02654367704700BFD1
:102DA0008D140000094A0346906870B113F1160FA4
:102DB000006E05D0A0F140029A4205D8834203D2AA
:102DC000814228BF0020704700207047A0130020D8
:102DD00008B51546094A0A4B9060026F1A600E4604
:102DE00000F044F82C4686F309880020054B9847EC
:102DF0002046002100220023034C2047A01300207E
:102E000054080020958800008D140000014B10220A
:102E10001A61704700ED00E0044800232021C21829
:102E20000133302B82F80013F9D1704700E100E044
:102E300008B5EFF30583064A103B02EBC30152F8D5
:102E4000330049688847BDE80840FFF745BD00BF2B
:102E5000FC980000024B034A0348012100F076B8B9
:102E60000000042000000020689B0000026E054B5B
:102E7000403A1A60044A4021C3E901121846012170
:102E800000F06EB85808002000000B15084AC2F880
:102E900098000B6823F01F03034343F01003C2F8AC
:102EA0009C308B6843F00103C2F8A030704700BF2C
:102EB00000ED00E02DE9F043DFF8608085B00E46BC
:102EC0001F4604464FF00009B14523DA6068D8B1C7
:102ED0003FB1411E08421BD11F2819D9236819424E
:102EE00016D12368019305F0F8FCA368034303930C
:102EF000D8F89050C5F30725D0B2013DA84207D8B5
:102F000001A9FFF7C3FF421C09F101090C34DBE7FB
:102F10006FF01502104605B0BDE8F08300ED00E04B
:102F2000044B0522C3F89420BFF34F8FBFF36F8F7C
:102F3000704700BF00ED00E0BFF35F8F024B00223F
:102F4000C3F89420704700BF00ED00E010B5034CBB
:102F500001232278FFF7AEFF207010BDEC13002094
:102F600008B50B4A00231278FFF7A4FF10F1160FE3
:102F700007D0084A0021D2F89030C3F307239842C3
:102F800000DB08BDC2F89800C2F8A0100130F2E7DB
:102F9000EC13002000ED00E02DE9F043534B544CBE
:102FA000D3F890302568C3F307239D4285B000F223
:102FB0009A80FFF7C1FF00200C2685421AD14D4CA4
:102FC0004D4F25706846FEF789FBDFF82081DFF85A
:102FD0002C9106460025AE4213D1237843490020A8
:102FE000D1F89020C2F30722934276DBFFF798FFD7
:102FF000002042E0616806FB0011FFF747FF013047
:10300000DBE7009800EB05114FEA051CCB683B405D
:10301000B3F5000F48D00AD8B3F5001F30D0B3F590
:10302000800F36D0B3F5801F10D00135D3E7B3F150
:10303000807F42D0B3F1007FF7D150F80C30886820
:103040004A6805F04AFC40F4802009E050F80C3052
:1030500088684A6805F041FC40F0885040F4302010
:10306000CDE901230390D8F890302078C3F30723EB
:10307000013B98422AD96FF0150005B0BDE8F083F6
:1030800050F80C3088684A6805F027FC40EA0900CF
:10309000E6E750F80C3088684A6805F01EFC40F0FE
:1030A000E06040F40030DBE750F80C3088684A6894
:1030B00005F013FC40F08270D2E750F80C308868BD
:1030C0004A6805F00AFC40F08870C9E701A9FFF7DB
:1030D000DDFE237801332370A7E7C1F89830C1F8EB
:1030E000A00001337CE74FF0FF30C6E700ED00E0C1
:1030F000749B0000EC1300200000F0FF000008119A
:1031000008B5024B1B689847002008BD64080020E2
:10311000034B044A1860937843F00203937070479E
:1031200064080020F400002008B50649064821F094
:103130000701C1F1005202F5802205F09CF8002041
:1031400008BD00BF87390020680800200E4A01230F
:10315000C2F840354FF080424FF08051C2F87835C8
:10316000D1F83001082808D1D1F83411052904D844
:103170000648415C09B1C2F838364FF0804301225D
:10318000C3F880250020704700E00140AE9C00009D
:1031900020B1034B800143F001031847704700BF83
:1031A000609B00004FF08043D3F84036DB072ED5FC
:1031B0004FF01023D3F8043303F00703072B26D175
:1031C000144A0123C2F80435D2F80034002BFBD096
:1031D0004FF01021D1F8043323F0070343F0040328
:1031E000C1F804330023C2F804350A4AD2F8003487
:1031F000002BFBD0BFF34F8F0749084BCA6802F47E
:10320000E0621343CB60BFF34F8F00BFFDE70020A8
:10321000704700BF00E0014000ED00E00400FA0547
:10322000020600F07F0312D5082B05D1010700F03C
:103230000F0306D50E48704710F0780F12D100F03A
:103240000F034C2000EB43100A4B18447047082B27
:1032500005D1020700F00F0306D50748704710F0AC
:10326000780FF6D000207047044800EB43107047F9
:10327000C009002074080020E00A0020E0090020B6
:103280000149024806F032B89C0800208003002063
:103290000146014805F0C7BF040200200248002291
:1032A000002303F025BC00BF0402002013B5124820
:1032B00000F0C4FE114B98421AD1114803F02CF9CA
:1032C0000024104803F06EF90F49104800944FF0A5
:1032D000FF334FF4806203F097FD0D490B4806F071
:1032E00027F80C480C4905F0E5FF204602B010BD58
:1032F0006FF00400FAE700BF013500000000AD0BDD
:10330000C29C0000989B00008018002080030020D1
:10331000B49C00009C0800201D36000010B50E492A
:10332000BFF35B8F002351E8002F012A03D141E84E
:1033300000300028F7D1BFF35B8F0CD151F8044C5B
:103340001439204605F0DBF8783004D12046BDE87A
:10335000104005F0B0B810BD9408002038B5002426
:1033600064F07F00C0B2FFF75BFF013405F0CAFADA
:10337000082CF5D10E4D0024E0B2FFF751FF036990
:1033800003B90561013405F0BDFA082C05F14005CB
:10339000F2D1084805F0B6FA074BD3F87C2212B9EF
:1033A000064AC3F87C22064805F0ACFA002038BD76
:1033B000040F0020C009002074080020040B002026
:1033C000E00A002010B5054CFFF768FF20B1416806
:1033D000204605F056FEF7E710BD00BFC4010020EF
:1033E00007B500230E48002201A903F08BFA90B123
:1033F000FFF7E8FF0A480022002301A903F082FA40
:1034000038B90198042340600374FFF741FFFFF7C8
:1034100037FF002001E00198406003B05DF804FB35
:10342000C4010020022810B511D8094B1C5CFFF71D
:10343000D7FF60B1002202740472FFF729FF054B29
:1034400093F824301BB1BDE81040FFF719BF10BD41
:10345000BF9C000074080020F8B5877806463846FF
:10346000FFF7DEFE3B06F578044612D5002D43D16A
:10347000FFF7B6FF034600283ED00122A57702746D
:10348000032202739C60FFF703FFBDE8F840FFF7DB
:10349000F7BE4DB1012D2FD1FFF7A2FF034658B360
:1034A000657705740573EDE7FFF79AFF20B3B278EF
:1034B000124B12F0800F02F0080111D041B1D3F885
:1034C000A836E36001230374022303738460DAE700
:1034D00002F00F02142101FB0233D3F80836F0E7A3
:1034E00011B1D3F8A837ECE702F00F02142101FB69
:1034F0000233D3F80837E4E7F8BD00BF007002409C
:10350000F0B5064689B01422002103A806F053F94D
:103510003378013B052B21D8DFE803F07A0314143C
:103520006A1603238DF814300024FFF759FF034671
:10353000A0B1047400F10802DDE9050182E803008E
:1035400018461DE00423EDE7B7783846FFF768FE1C
:10355000837A044623B1013B022B43D909B0F0BD65
:103560003B06F57813D5002DF8D1FFF739FF034658
:103570000028F3D00122A5770274032202739C6015
:10358000FFF786FE09B0BDE8F040FFF779BE55B100
:10359000012DE3D1FFF724FF03460028DED0657735
:1035A00005740573EBE7FFF71BFF07460028D5D02E
:1035B0000123037402230373846004F10C01B078C7
:1035C00005F001FA134AE168B2F88C328B4206D951
:1035D0005B1AA2F88C3201F07FF83846D0E7A2F8E7
:1035E0008C52FAE7304609B0BDE8F040FFF734BF2F
:1035F00001A801F04FF89DF80530052B04D19DF886
:10360000043013F0600FA9D0034B059301248CE71D
:1036100002248AE774080020E00900202DE9F04325
:10362000A64CDFF89C9285B08046FFF737FE074630
:1036300010B905B0BDE8F08394F825303A7C3BB969
:10364000002A00F0868079689D4805F01AFDECE7B5
:10365000042A42D8DFE812F07D00050000011601BF
:1036600040013B7BBD68032B37D8DFE803F0023D08
:103670005A5F6E69934B002232607260D3F88014F7
:103680003170D3F884147170D3F88814D3F88C0493
:1036900041EA00217180D3F89014D3F8940441EAF0
:1036A0000021B180D3F89814D3F89C3441EA032365
:1036B000F3800823EB6030687168834B03C31146C5
:1036C0002B68687A984796F90030002B08DBF3885E
:1036D00033B1A4F88C3200F0FFFF79684846B4E7B4
:1036E0000023A4F88C32F8E76B7F002BF5D02B7FFA
:1036F000002BF2D000266E774FF0FF3273482E7702
:103700004FF0FF3305F011F96B6901936B68CDE958
:10371000023601A9687A00F0E7FC6C4805F007F969
:10372000DBE72B680121687A9847D6E7AB7A6BB95B
:10373000EB7F5BB965484FF0FF324FF0FF3305F088
:10374000F4F800F0CFFF614805F0F1F82B68022192
:10375000E9E73A7A042AC0D8DFE802F05903236780
:10376000730000F02BFC05460028B6D100F066FB84
:10377000BFF35B8F5649012351E8002F002A03D184
:1037800041E800300028F7D1BFF35B8FA5D141F8A5
:10379000085C41F8105CE0696361143904F034FEA0
:1037A0009BE7002565F07F00C0B2FFF739FD037A83
:1037B00013B1407A01F0FAF80135082DF2D194F8EE
:1037C00054311BB194F8550101F0F0F80025E8B22E
:1037D000FFF726FD037A13B1407A01F0E7F80135CF
:1037E000082DF4D194F874321BB194F8750201F0ED
:1037F000DDF8002000F0C6FB012384F825302368A3
:10380000002B3FF46AAF00210220984765E70025AE
:1038100084F8255001F030F8FFF780FD2368002B75
:103820003FF45BAF29460420EFE7002B3FF455AF90
:1038300000F0CEFB2368002B3FF44FAF00210520A2
:10384000E3E72268002A3FF448AF002B3FF445AF7E
:1038500000210620904740E708F110054FF0FF33A4
:103860004FF0FF32284605F060F8FFF777FD284655
:1038700005F05DF858F8283C002B3FF42EAF0021EE
:103880000120C2E794F874327BB1012584F8895293
:1038900084F88852FFF7A4FD38B10E4A0574057309
:1038A0008260FFF7F5FCFFF7EBFC58F8283C002B93
:1038B0003FF413AF00210A20A7E700BF74080020DF
:1038C000C40100200070024078080020AC080020ED
:1038D00094080020E00A002005F074FB00F0CCFF03
:1038E00000F0A2FAFFF76EFDFFF738FD05F063FB6D
:1038F000014800F0A3FBF0E60135000038B5164D95
:1039000095F824402CBB05F1380005F004FC204656
:1039100001F09EF922460121E8612720FFF7EAF92C
:1039200005F049FBFFF71AFD044610B9012385F89D
:1039300024300A4B1B680BB1FFF7A2FC4FF0804309
:10394000D3F83834DB0702D50020FFF76BFD2046A3
:1039500038BD0024FBE700BF7408002004020020EB
:10396000074B93F824203AB193F82530002B14BF6D
:1039700000206FF0120070476FF01200704700BF18
:103980007408002038B5104B93F824300446C3B1B6
:1039900005782846FFF744FC10B96FF0150038BDD4
:1039A000457223798372638843602078618810F0C0
:1039B000080F02D14B1E0B42EFD104F0FFFF002095
:1039C000EDE76FF01200EAE77408002038B5124BFB
:1039D00093F824200546CAB193F82530B3B1FFF718
:1039E0001FFC0446A8B1837A012B12D007D9023BF1
:1039F000012B07D96369A3610020E06038BD00F0A6
:103A000077FEF7E7284600F019FEF3E76FF01200A3
:103A1000F4E76FF01500F1E77408002038B50E4B9D
:103A200093F82420054682B193F825306BB1FFF757
:103A3000F7FB68B115F008040AD1284600F020FE13
:103A4000284600F0EBFF204638BD6FF01200FBE780
:103A50006FF01500F8E700BF7408002038B50C4B74
:103A600093F8242005460C4662B193F825304BB1FB
:103A7000FFF7D6FB48B144B1284600F0E7FD2070BF
:103A8000002038BD6FF01200FBE76FF01500F8E77B
:103A90007408002070B5134E96F824300446C3B164
:103AA000FFF7BEFB0546B8B1230705D4204600F05A
:103AB000E7FD204600F0B2FF2B7A83B901232B7279
:103AC00096F825300BB9002070BD204600F06EFF3F
:103AD000F9E76FF01200F7E76FF01500F4E76FF009
:103AE0007700F1E7740800202DE9F043DFF8E48067
:103AF0001E4698F8243085B0074689461546002BA7
:103B000061D098F82530002B5DD003065ED5FFF715
:103B100087FB0446002859D0037A002B56D04FF07B
:103B2000FF334FF0FF3208F1380004F0FEFEA37FB0
:103B30004BB108F1380004F0FAFE6FF00A04204699
:103B400005B0BDE8F083A37AC5B13BB30123A377E9
:103B50004FF0000801A93846CDE90195CDF80C8059
:103B600000F0C2FA1C4B984229D084F81E801EBB7C
:103B70006FF00404194804F0DAFEE0E7E27F02B1D6
:103B8000E577002BE2D100F0B9FD8742DED000F0EE
:103B9000A9FD124804F0CBFE0024D0E7B8F80A30A3
:103BA000AB42F0D96268B5FBF2F302FB1353002B72
:103BB000E9D10123E377E6E7C6F80080D8E706B14C
:103BC00035600024D6E76FF01204B8E76FF01504F3
:103BD000B5E700BF740800200000AD0BAC08002062
:103BE0002DE9F0411D46204B174693F824200E4640
:103BF000002A33D093F8253083B3030631D401B9BA
:103C00007FBBFFF70DFB044658B3037A4BB34FF06D
:103C1000FF3316484FF0FF3204F087FEE368BB42E3
:103C2000984628BFB84646B93FB905B12B600F4842
:103C300004F07DFE0020BDE8F081A16942463046D7
:103C400005F0ABFDA3694344A361E368A3EB08035C
:103C5000E360002DEBD0C5F80080E8E76FF01200BC
:103C6000E9E76FF01500E6E774080020AC080020D3
:103C700070B51E4D95F82420034682B395F8252093
:103C80006AB31B062ED4FFF7CBFA044650B3037A6F
:103C900043B34FF0FF334FF0FF3205F1380004F02B
:103CA00044FEE368B3B9012663692677A361637FA5
:103CB00083B1FFF795FB30B905F1380004F037FE0A
:103CC0006FF00B0070BD067484600673FFF7E0FAB6
:103CD000FFF7D6FA064804F02AFE0020F2E76FF05C
:103CE0001200EFE76FF01500ECE700BF740800204A
:103CF000AC08002010B5084B93F824300C462BB1CB
:103D0000FFF78EFA28B10460002010BD6FF012009A
:103D1000FBE76FF01500F8E774080020014B18600E
:103D2000704700BF7408002008B5074B93F8243093
:103D300023B1FFF775FA20B1406808BD6FF012009B
:103D4000FBE76FF01500F8E7740800204FF0805390
:103D5000D3F83021082A06D1D3F83431052B04D802
:103D6000034AD05C7047002070470120704700BFB5
:103D7000C39C0000064B10F0800FA3F1D80208BFCF
:103D8000134600F00F00182202FB0030704700BFFE
:103D90001C120020EFF31180202383F31288BFF35D
:103DA0006F8F0A4BD3F8001C032261B949F27531B9
:103DB000C3F8001CC3F8142DC3F8001C80F311884D
:103DC000BFF36F8F7047C3F8142DF7E700E006408C
:103DD000EFF31180202383F31288BFF36F8F0A4B18
:103DE000D3F8001C61B949F27532C3F8002CC3F84E
:103DF000141DC3F8002C80F31188BFF36F8F704738
:103E00000022C3F8142DF6E700E006404FF080537F
:103E1000D3F83031082B02BF024B0022C3F81C2C10
:103E2000704700BF00700240024A00231360024A3C
:103E300013707047FC120020F113002008B54A4BA4
:103E40004FF40062C3F80024FFF780FF08B1FFF7CA
:103E5000A1FF4FF08053D3F83031082B18D1EFF386
:103E60001180202383F31288BFF36F8F3F4BD3F869
:103E7000001CC02200296ED149F27531C3F8001C24
:103E8000C3F8142CC3F8001C80F31188BFF36F8FA4
:103E9000354B0122C3F80025D3F800241205FBD5C9
:103EA0004FF40062C3F800244FF08053D3F8303150
:103EB000082B17D1EFF31180202383F31288BFF36F
:103EC0006F8F2A4BD3F8001C002947D149F2753275
:103ED000C3F8002CC3F8141CC3F8002C80F311881D
:103EE000BFF36F8FFFF732FF30B1FFF771FFFFF7BE
:103EF0002DFF08B1FFF74EFF4FF08053D3F830315C
:103F0000082B194B0AD140F2E372C3F80028402273
:103F1000C3F80428BFF36F8FBFF34F8F8022C3F81D
:103F20001C250122C3F83025114B40F2FF121A6004
:103F3000104B00211960104B1970FFF767FF0F4BF2
:103F400019700F4B02221A70FFF700FF50B1BDE845
:103F50000840FFF73DBFC3F8142C95E70022C3F8D3
:103F6000142CBBE708BD00BF0070024000E0064013
:103F7000F8120020F4120020ED130020EF130020AF
:103F8000F1130020094B002210B51A70084A094BA2
:103F9000094C002808BF1346C4F800332720FEF759
:103FA00079FE0123C4F8043510BD00BFF0130020D2
:103FB000FDFFDF01FDFFFF0100700240034B187899
:103FC000012894BF00200120704700BFF11300209A
:103FD00010B54FF0FF324FF0FF33154802F0EEFD01
:103FE000EFF31181202383F31288BFF36F8F114BFE
:103FF0001B7803F0FF0483B10F4BD3F8002412F4B5
:1040000000720AD10120C3F82C05D3F82C05D3F88F
:104010000004800502D5C3F82C25002481F3118803
:10402000BFF36F8F024802F095FD204610BD00BF20
:10403000F4010020F013002000700240F8B51C4B82
:104040001C7894BB1B4A106001221A7040F2FF17C3
:10405000264664F07F0514F0080FEDB214BF394610
:104060004021284604F0AAFC2846FFF783FE0134CD
:10407000092C867506730661EBD1002440F2FF1708
:10408000254614F0080FE6B214BF394640213046E9
:1040900004F094FC3046FFF76DFE0134092C857561
:1040A00005730561EDD10448F8BD0448FCE700BF85
:1040B000F1130020FC1200200000AD0B0500AD0B39
:1040C000084B10F0800F00F00F0114BFD3F810253B
:1040D000D3F8142501238B40134214BF0120002084
:1040E000704700BF007002402DE9F8430246EFF32D
:1040F0001187202383F31288BFF36F8F030703D147
:10410000184B1B78834229D1174B184E1C68356811
:10411000104604F04BFCE443A4B24FF001092C43D9
:1041200009FA00F814EA08041AD11046FFF722FE33
:1041300080F80C90034607C91C6183E807009C7552
:104140000B4B0C4845EA080580223560C3F8042172
:1041500087F31188BFF36F8FBDE8F8830648F7E750
:104160000648F5E7EF130020F8120020F4120020B3
:1041700000E100E00000AD0B0A00AD0B0B00AD0B41
:1041800010F0080F074B06D0D3F8C00410F4803F9E
:1041900018BF0020704700F00F0000F5947053F82E
:1041A00020007047007002402DE9F74FAB4BAC4E3A
:1041B000D3F85421DAB10022C3F85421D3F8041300
:1041C000890214D58DF80420D3F82025ADF80620F7
:1041D000D3F8C034002B336814BF4FF001224FF4E2
:1041E0008072134333609F4B01A81B6898479B4B19
:1041F000D3F8604134B10022C3F86021D3F86C4495
:10420000C3F86C44D3F828214AB10022C3F828210E
:10421000954B187804F0CAFB012383401C43DFF858
:104220004C82934F98F8005098F9009015F00801CF
:1042300043D1B9F1000F05F00F032EDA8D4A52F881
:10424000230020B342F823101422534303F1804388
:1042500003F51C33D3F80836874A117803F00103BD
:104260004B401370FFF7D2FD844802F073FC2846E0
:10427000FFF780FD837D032B37D1284604F096FBA2
:10428000012303FA00F03B6823EA00033B60DFF8F8
:10429000D4A101254FF006095DE0794A52F82300C8
:1042A0000028F4D042F823101422534303F1804332
:1042B00003F51C33D3F80837CEE7B9F1000F674B8D
:1042C00009DBD3F85021002AE1D00022C3F85021A5
:1042D000D3F8A837C0E7D3F82C21002AD7D0002282
:1042E000C3F82C21D3F8A836B6E7037BDBB9284600
:1042F00004F05CFB012303FA00F03B68B9F1000F06
:1043000023EA00033B6001DA882DC0D106238DF833
:10431000043000238DF80730524B8DF806501B688F
:1043200001A89847B3E7002DB1D14C4B0122DA64C4
:10433000ADE794FAA4F03268B0FA80F005FA00F321
:104340001A430F28326024EA03043A6840F39C8041
:10435000134200F0A980002CEBD1404BD3F8002190
:104360005AB1C3F80041474B1C703F4B1C700123EE
:1043700001933C4B01A81B689847384BD3F8582150
:10438000002A2ED00022C3F85821D3F80044C3F8E5
:104390000044E30508D53B4B01221A700223019328
:1043A000304B01A81B689847A50508D5354B00225E
:1043B0001A70032301932B4B01A81B6898476005D3
:1043C0000FD5304B1A7862B100221A70234B0122AC
:1043D000C3F808259A6504230193224B01A81B68A2
:1043E00098471E4BD3F85C3103B3244B9B681BB931
:1043F00098F80030590619D0184B0022C3F85C21F8
:10440000D3F88034184A23F07F0313703B6823F0FD
:1044100001133B60336823F4803343F001033360BE
:10442000052301930F4B01A81B6898473A6833682E
:104430001A4200F0EB8011480022002302F0BEFB7C
:10444000002840F0E380054BD3F82C35002B7BD0BF
:104450000A4803B0BDE8F04F02F07CBB0070024098
:10446000F8120020FC120020EF130020EE130020B1
:10447000F412002008710240ED130020F401002026
:1044800030710240F013002013407FF464AF60F0FD
:104490007F018DF804908DF806108DF80730DAF85A
:1044A000003001A8984756E7A0F110018DF804905C
:1044B0008DF806108DF80750F1E749F08005284681
:1044C000FFF758FC4368B0F814A001689A4528BF6C
:1044D0009A4601F06043B3F1005F044604D05448AB
:1044E000524605F05AF952492268636852442260E4
:1044F000A268A3EB0A03D20768B2636053D5BAF18E
:10450000000F52D1002323734FE011464FF0000AF1
:10451000604545D1003B18BF0123002A42D05045D9
:1045200040D9012303FA09F32BEA03033B60062376
:104530008DF804303F4B8DF8065002221B68A2759F
:104540008DF8072001A89847D7F800B033681BEA18
:1045500003093FF47DAF19F0012314BF93FAA3F9C7
:1045600099FAA9F9B9FA89F9B9F10F0FA5D9A9F101
:104570001005EDB22846FFF7FDFB04462846FFF77D
:10458000FFFD6368B4F814C022689842BDD81B1AB6
:1045900000EB020E11466360C4F800E08246B7E704
:1045A0000023BAE768B2002BACD04FF08053D3F8A9
:1045B0003031082B02BF204B8222C3F81C2C3368F9
:1045C00088F80050012202FA09F923EA090333604E
:1045D000236915F0080F53442361174B19D10028A4
:1045E00005F00F054FF0140000FB0530A9BF0A3598
:1045F00003EB8503C0F80017C0F804A7AFBF43F86A
:104600002520C0F80016C0F804A65A6003B0BDE823
:10461000F08F0028B5BFC3F8A016C3F8A017C3F8E1
:10462000A4A6C3F8A4A7B4BF5A629A64EEE700BF79
:1046300004110020FC12002000700240024B40F4E4
:104640008070C3F81805704700700240030713D448
:1046500000F00F0310F0800F084A0BBF03F58873BA
:1046600003F5847302EB830252F8230008BF5068FD
:10467000003818BF012070470020704700700240CA
:10468000034BC3F80C0540F48070C3F80C05704769
:10469000007002400023036043600E4BD3F8802477
:1046A0000270D3F884244270D3F88824D3F88C1491
:1046B00042EA01224280D3F89024D3F8941442EACB
:1046C00001228280D3F89824D3F89C3442EA032351
:1046D000C380704700700240014B0122DA647047CA
:1046E00000700240014B01221A65704700700240C1
:1046F000014B01225A65704700700240014B187847
:10470000704700BFEF13002010B50246EFF311848D
:10471000202383F31288BFF36F8F04F047F90B490E
:10472000012303FA00F00B6823EA00030B6012F088
:10473000080101BF02F00F02054B02F5947243F825
:10474000221084F31188BFF36F8F10BDF812002080
:1047500000700240F7B50146EFF31185202383F383
:104760001288BFF36F8FFFF705FB0646084604F07B
:104770001DF9012211F0800F02FA00F22D4818D124
:10478000036832EA03040AD00846FFF7BDFF03239B
:10479000B37585F31188BFF36F8F03B0F0BD264961
:1047A000347323EA020303600B6823EA02030B60FD
:1047B000EDE70B0715D48029204B2FD001F00F0413
:1047C00004F2DA346400C3F80048D3F80448D3F89C
:1047D0000478E4B244F002043C43C3F80448D3F83C
:1047E0000438154F04683B6864EA030C1CEA020FA6
:1047F000CFD013433B60002333730323B3758DF88D
:1048000007300F4B8DF8061024EA020406220460DC
:104810001B688DF8042001A89847BAE740F2B474E9
:10482000C3F80048D3F80448D3F80478E4B244F05D
:104830000404D1E7F4120020F812002000700240B6
:10484000FC12002038B50446094D4FF0FF324FF0FE
:10485000FF33284602F0B2F92046FFF77BFF2846D7
:1048600002F078F9034B8022C3F8042138BD00BF61
:10487000F401002000E100E0F8B54FF0FF324FF006
:10488000FF332B4802F09AF92A4B8022C3F8842187
:104890002720FEF721FA98B1274E284B34681B6871
:1048A000240C24041C43012764BB254D40F2FF1354
:1048B00033602720C5F80445FEF7FAF9C5F8004330
:1048C000204A13788BB11E4B0021C3F80811012137
:1048D000C3F80026C3F804165960D3F8081100295C
:1048E000FBD00021C3F808111170154B0022C3F84A
:1048F0000025FFF78BFA0E4802F02CF9124B01222B
:104900001A70F8BD94FAA4F5B5FA85F50F2D28466E
:10491000C6BFA5F11000C0B240F08000030701D46B
:10492000FFF718FF07FA05F524EA0504BCE700BF06
:10493000F401002000E100E0F8120020F412002051
:1049400000700240ED130020F113002010B5044662
:104950004FF0FF324FF0FF33114802F02FF920469D
:10496000FFF7F8FE04F00F02012393400D4A14F004
:10497000800F14BFD2F81015D2F814156FEA030394
:1049800015BF0B400B40C2F81035C2F8143504486F
:1049900002F0E0F8044B8022C3F8042110BD00BFF0
:1049A000F40100200070024000E100E070B5044610
:1049B000FFF786FB68B904F00F02012514F0800FA1
:1049C000144B05FA02F205D0D3F810150A43C3F8C8
:1049D000102570BDD3F814150A43C3F81425631EBF
:1049E000062BF6D8EFF31186202383F31288BFF34A
:1049F0006F8F2046FFF788FE204603F0D7FF064A58
:104A00001368854023EA0503136086F31188BFF31A
:104A10006F8FDEE700700240F4120020030610B52D
:104A2000044605D4FFF712FE10B12046FFF76CFED6
:104A3000014BC3F8184510BD00700240084B70B51B
:104A4000C31A0D4607499B100446594306484022A5
:104A500003F0D8FF2B4601462046BDE870401847BA
:104A600014130020B76DDBB65C98000073B50C4CD6
:104A70000C4A4023041B00930D460B460A49A41020
:104A800061430646094803F0E9FF011E05DA304696
:104A90002B4602B0BDE87040184702B070BD00BFA1
:104AA00014130020C78A0000B76DDBB65C980000C5
:104AB00010B5EFF31184202383F31288BFF36F8FB7
:104AC000074A136823F00201DB07116002D40120BA
:104AD00004F0E3F984F31188BFF36F8F10BD00BFBA
:104AE00064130020002270B5012104461046FEF731
:104AF00001F90F4801F066F80E4B984215D101F00C
:104B000071F826690C49304603F06BFC00280BDB7A
:104B1000012535642469084904F11C0003F061FC97
:104B2000002801DBE564002070BD6FF00400FBE7A6
:104B3000354C00000000AD0B9C9B00001FB500220F
:104B40000123CDE90223094ACDF800D06B46CDF808
:104B500004D003F0B1FF002805DB4FF480420023AE
:104B6000684602F02BF805B05DF804FBE58A00000A
:104B700030B4104B0C2202FB003301460020D3E975
:104B80000E529863EFF31180202484F31288BFF350
:104B90006F8F1C6C04F0C00444F002041C6480F3AA
:104BA0001188BFF36F8F1DB12B46034830BC1847E7
:104BB00030BC7047141300205C98000010B4EFF371
:104BC0001182202383F31288BFF36F8F1748016887
:104BD00041F002040460C80707D482F31188BFF3D0
:104BE0006F8F012010BC01F015B84FF08041D1F853
:104BF0000C04D1F80C14C907EFD5EFF3118083F33F
:104C00001288BFF36F8F0A490B6C03F0C00343F0A7
:104C100002030B6480F31188BFF36F8F82F3118856
:104C2000BFF36F8F002010BCFFF7A2BF64130020FA
:104C30001413002010B1012804D07047034B1B6CE3
:104C40005B0701D1FFF794BF704700BF141300202A
:104C5000024AC3B21C2003FB00207047141300203B
:104C60002DE9F0413849BFF35B8F0746012251E837
:104C7000003F41E800200028F9D1BFF35B8F33B932
:104C8000324933484B60CB608A6003F0BDFB7B1E2A
:104C9000012B2BD8012F07D14FF08043D3F81C34C0
:104CA00003F00303012B21D004F03CFB0546F8B9C7
:104CB000284B1B78E3B14FF080430222C3F808234E
:104CC0000646DFF894804FF08044D4F81824D4F8D6
:104CD0001834D20315D503F00303012B01D0012FA3
:104CE0000FD155B386F31188BFF36F8FBDE8F08104
:104CF000EFF31186202383F31288BFF36F8F012512
:104D0000DFE7ADB1304603F0D9FDD4F81835002BFC
:104D1000DBD1D4F80421002AD7D0C4F80431D4F868
:104D200004310123C4F81835C8F88031A360CCE7FA
:104D30000021212004F096FBE7E74FF08043022298
:104D4000C3F80423D2E700BF101300200013002093
:104D5000301300201614002000E100E008B50748D9
:104D600004F043F938B10648FEF7D2F90448FCF7DD
:104D70006FFB002008BD6FF01200FBE7BC9800003D
:104D8000854D00000A2838B5074D044604D1AB68AC
:104D90000D215B6828469847AB6803485B68E1B221
:104DA0009847204638BD00BFBC980000F0B5406869
:104DB000057B01F01F0444EA4514056987B0002D06
:104DC00064D0B2F5001F00F1100506D12146284637
:104DD00004F0E3F8002007B0F0BD01AE0027B2F503
:104DE000800F0197776039D1B3F1007F14BF05239D
:104DF00004238DF804300023CDE904630393836812
:104E000023FA01F111F001011AD1B2F1A07F17D1FB
:104E100004F01F03620903F5E0732AD0012A3BD195
:104E20001F4A52F82330DB070AD40DF1030632463D
:104E30002146284601F0D6F91A4B98421CD002961A
:104E400003AA2146284601F08FF8174B984220D13B
:104E500001222146284601F029FABBE7B3F1C06FD1
:104E600005D0B3F1007F14BF01230223C1E7032360
:104E7000BFE74FF0A042D4E73146284601F010FAD0
:104E8000094B9842DBD06FF00B00A4E76FF0850070
:104E9000A1E76FF015009EE751F82330FFDE00BF59
:104EA000000300500400AD0B0000AD0B38B54568A1
:104EB0002B69B3B11035284601F0E2F9044680B9F8
:104EC0000146284601F0A8F9084B98420BD1084941
:104ED0002246284601F080F9224605210620FDF7EA
:104EE00009FF002038BD6FF00400FBE70000AD0BA8
:104EF000F54E0000420970B5034602D0012A17D0D2
:104F000070BD0D4E326951680029F9D003F01F03BE
:104F100001250C689D400029F2D08A682A4002D001
:104F20004B68304698472CB1236821461C46F2E76F
:104F3000024EE7E72346F8E79C9800007C980000C3
:104F40002DE9F043466840F20635D006337B87B042
:104F500002EA050554BFC2F34010032001F01F0709
:104F6000B5F5837F144647EA43178DF8030045D013
:104F70000FD8062D18D007D8B5B1022D40D06FF04C
:104F8000150007B0BDE8F083B5F5807FF7D10125A6
:104F90000AE040F20222954234D0B5F5407F33D08A
:104FA000B5F5007FEBD102250123220303FA01F1BD
:104FB0002CD57368C3F80815326982BB07F01F034C
:104FC0007F0929D0012F77D13E4A02EB830284F476
:104FD0008033D2F80017C3F30043C4F3404444EADB
:104FE000430421F4E16144EA800421F0070144EA2A
:104FF00005230B43C2F800370020C2E70725D3E79B
:105000000425D1E70525CFE70325CDE7630344BF9A
:105010007368C3F80C15CFE74FF0A042D5E7103600
:105020000DF102023946304601F0DCF814F4403F3D
:1050300080460CD13946304603F0ADFF224B9845EF
:10504000DAD19DF80210304601F024F9D4E701AB23
:105050004FF0000903AA39463046CDE90439CDE9BD
:105060000199CDF80C9000F07FFF174B984286D144
:1050700014F4003315D09DF803308DF80E3084F40D
:105080008034C4F300444B4603AA394630468DF8B9
:105090000C508DF80D4001F021F80B4B9842CDD00B
:1050A0006DE7CDE9043303AA0DF103033946304619
:1050B000039300F059FFF0E703F5E07352F8233053
:1050C000FFDE00BF000300500000AD0B036803F0DB
:1050D0001F025B09026004D0012B034818BF0020A7
:1050E00070474FF0A0407047000300502DE9F04F8B
:1050F000DFF86091DFF860A185B01546834600EBCC
:10510000810140F2FF18594503D1002005B0BDE8E8
:10511000F08FDBF800305804C3F3C322C3F3080454
:1051200000F191801B0E19F80270444508BF4FF042
:10513000FF34192B00F28A80DFE803F00D141A1DEA
:1051400020261D888888883663888888888888888B
:105150008888667C7F82C5F80C45621C5ED10BF1A5
:10516000040BD0E7C5F81445631CF8D000265FE0B7
:10517000C5F80845F1E7C5F81045F5E7661CC5F820
:105180000845ECD0002604E0601CC5F80C45E6D0CC
:10519000012603A80394FFF799FF039B012202FA5B
:1051A00003F3C0F80C3508E0C5F80845002FDBD143
:1051B000631CD4D0002632460627DBF8003001936A
:1051C00003F40040002818BF002203A8009218BF73
:1051D00001260394FFF77AFF039C019B009A00EBE2
:1051E0008400C3F3412CD0F800473B0243EA8C0310
:1051F000134304EA0A04234343EA4603C0F8003792
:10520000ADE7C5F80C45D1E7C5F86045621CDBF891
:105210000030A4D0C3F30043002BB9D003A80394FB
:10522000FFF754FF039B012606FA03F3C0F8083585
:105230003246C2E7C5F86445E8E7C5F86845E5E7E2
:10524000C5F86C45E2E76FF015005FE76FF0850089
:105250005CE700BFF49C0000F0F8FCFF2DE9F04192
:10526000044647680D4604F05DF84FF0200888B901
:10527000264B1B7873B16426606803F056FDF0B9C5
:10528000012003F0FCFD013EF6D10021212004F0B5
:10529000E9F8F0E7EFF31186314688F31288BFF39F
:1052A0006F8F606803F041FDA8B986F31188BFF3E2
:1052B0006F8FEFE786F31188BFF36F8FE5E7EFF3AA
:1052C0001186314688F31288BFF36F8F606803F050
:1052D0002CFD0028EED0BB691D706368BA691B689D
:1052E0000020C3F844250122C3F84825C3F8200153
:1052F000D3F82041C3F85801D3F858019A6081F3DC
:105300001188BFF36F8FBDE8F08100BF1614002035
:10531000F7B50546002201210220FDF7EBFC022033
:10532000FDF7B8FC6A6811681369C1F82435137D6C
:10533000507D927D03431343C1F86C356E68D6E906
:10534000004313F0010348D02F6907F10C0003F06C
:10535000A2FD304B98425AD1387B04F10C0204F57F
:10536000907103F08EFD387B012707FA00F000F002
:10537000C1FB0823C4F80035B369C4F844350023E1
:10538000C4F84835A760D4F85831002BFBD0002171
:10539000C4F800156B68DC6801AA204603F00EFC17
:1053A000002805DB019B226819791868FFF79EFE2B
:1053B0006A6813680821C3F80015117A51B9D269D7
:1053C000C3F834250122C3F83825C3F81011D3F8E7
:1053D00010111A60002003B0F0BD0822C4F80025A7
:1053E000B269C4F84425C4F848350123A360D4F851
:1053F0002031002BFBD00023C4F82031D4F8203119
:105400000123E3604FF48073C4F80433BBE76FF00B
:105410000400E0E70000AD0B70B5012383400E4AA5
:10542000BFF35B8FDC4352E8001F01EA040542E84A
:105430000056002EF7D1BFF35B8F4FF480328240CD
:105440000648C0F80823BFF35F8FBFF36F8F0B428E
:1054500014BF0120002070BD841300200010014003
:1054600070B40E49D1E90034D01AC31844F10004D5
:1054700022F07F46C1E90034A6F50013B3F5400FD2
:1054800009D2074B1B681A0A1B069C19054B42F1EF
:105490000005C3E9004570BC02F020BA30040020CA
:1054A000881300203804002011B3BFF35B8F012361
:1054B000104A834052E800CF4CEA030C42E800C196
:1054C0000029F7D1BFF35B8F0B4A4FF48033834041
:1054D000C2F80433094BBFF35B8F1B68BFF35B8FCC
:1054E000C340DB0742BF064B4FF40032C3F8002134
:1054F000704700BF8413002000100140801300207B
:1055000000E100E00D4B1868010A0006BFF35F8F51
:105510000B4BD3F80435181841F10001B3F5801F87
:105520000AD2084BD3E90023904271EB030303D264
:1055300010F1807041F10001704700BF8813002016
:1055400000100140380400202DE9F04F85B01646C8
:105550001F469DF840A00446FFF75EFF0190FFF74D
:10556000D1FFB04271EB070354D23E4B301A67EBC8
:105570000101984271F100014FD23B4B03EB041340
:10558000D3E902239F4208BF96425ED037494FF4C9
:10559000803804F1500508FA04F8AD00C1F84883DA
:1055A0002046ADB203F05EFC26F07F4B05F180454E
:1055B00004F5A87305F58835DC464FF0030902931E
:1055C000029A2CF07F4341F82230C1F84483D1F88D
:1055D0000435274A6FF00200C01A604420F07F4073
:1055E000904232D9286868B1D1F804350393A3EB0F
:1055F0000B0020F07F40B0F5000F26D9204603F0C5
:1056000031FC039BBAF1000F07D109EB030C09F140
:105610000109D5E7BAF1000F09D06FF01505204652
:105620000199FFF741FF284605B0BDE8F08F01233F
:10563000104ABFF35B8FA34052E8000F184342E8C3
:1056400000010029F8D1BFF35B8F07490E982301B1
:1056500001EB0412C8500F9B5360C2E9026700259A
:10566000DDE700BF010080002004002000100140A1
:10567000FDFF7F00801300207FB51C4C1C4BC4F83D
:105680000833C4F848331B4B00254FF0FF304FF070
:10569000FF31C4F80855C3E902014FF48033C4F860
:1056A0000433154B02264FF400320121C4F8046381
:1056B0001120C3F880212A46FDF71CFB1120FDF7BD
:1056C000E9FA0E4A0123A360236013600C4B0D4AD4
:1056D0000093CDE9015500232846FFF735FF3046FA
:1056E000FFF7BEFA284604B070BD00BF00100140AD
:1056F00003000F002004002000E100E084130020DC
:1057000061540000FFFF7F002DE9F7432F4CD4F8D0
:10571000043399070BD5D4F8043143B12C4A002344
:10572000C4F80431D4F80431136801331360D4F899
:105730000433DA0329D5BFF35B8F264B53E8002FE0
:1057400022F0010143E800100028F7D1BFF35B8F7E
:10575000D30702D4D4F84031BBB10025C4F840517E
:10576000D4F84031FFF7CEFEEFF31182202383F30C
:105770001288BFF36F8F184BD3E90267B042B9416B
:1057800006D282F31188BFF36F8F03B0BDE8F083B8
:105790004FF0FF384FF0FF39C3E90289D3E9001019
:1057A0001D604FF48033C4F84833C4F84051D4F836
:1057B000403182F31188BFF36F8F0029E5D000904C
:1057C00032463B4628468847DFE700BF00100140CD
:1057D00088130020801300202004002030B5431CD3
:1057E000124C85B005D08442A8BF0446012CB8BF36
:1057F0000124FFF787FE0E4B0C4DD3E90013401A2E
:10580000B0F5000F10D22218AA4228BF2A4652181B
:105810004FF0000007490091CDE9010043F100037A
:10582000FFF792FE05B030BD2A46F0E7FFFF7F008C
:10583000300400206154000008B5FFF763FE024BFE
:105840001B68C01A08BD00BF30040020BFF34F8F93
:105850000549064BCA6802F4E0621343CB60BFF30C
:105860004F8F00BFFDE700BF00ED00E00400FA0528
:105870004FF08053D3F83021082A06D1D3F83431C1
:10588000052B02D8024AD05C70470020704700BF49
:10589000109D0000024AD2F80034002BFBD0704764
:1058A00000E0014010B54FF08053D3F83021082AB2
:1058B0004ED14FF080420021C2F80C11C2F81011F5
:1058C000C2F8381502F54042D3F80414C2F8201586
:1058D000D3F80814C2F82415D3F80C14C2F828150C
:1058E000D3F81014C2F82C15D3F81414C2F83015DC
:1058F000D3F81814C2F83415D3F81C14C2F84015A4
:10590000D3F82014C2F84415D3F82414C2F848156B
:10591000D3F82814C2F84C15D3F82C14C2F850153B
:10592000D3F83014C2F85415D3F83414C2F8601503
:10593000D3F83814C2F86415D3F83C14C2F86815CB
:10594000D3F84014C2F86C15D3F84434C2F870355B
:10595000FFF78EFF18B13F4B3F4AC3F88C26FFF785
:1059600087FF18B13D4BFB22C3F81825FFF780FFD6
:1059700070B14FF080414FF08053D1F8E42ED3F84E
:10598000583222F00F0203F00F031343C1F8E43E34
:10599000FFF76EFF20B1324B4FF40072C3F8402680
:1059A0004FF08053D3F83031082B1AD14FF0804399
:1059B000D3F80024D20744BF6FF00102C3F80024DB
:1059C0004FF08053D3F83431052B02D8254AD35CED
:1059D0003BB14FF01023D3F808224FF08043C3F8B7
:1059E00058254FF01021D1F80C32DB0714D51E4892
:1059F0000123C0F80435FFF74DFFD1F80C3223F036
:105A00000103C1F80C32FFF745FF0023C0F804354D
:105A1000FFF740FFFFF71AFFD1F80032002B03DB3E
:105A2000D1F80432002B14DA0F4901234FF0102073
:105A3000C1F804351224FFF72DFFC0F80042FFF72C
:105A400029FFC0F80442FFF725FF0023C1F8043501
:105A5000DEE710BD005000404881030000F0004028
:105A6000009002400A9D000000E0014030B504684B
:105A7000CCB1BFF35B8FB4FA84F3C3F11F03DBB285
:105A800001229A4024EA020250E8005FA54204D1B4
:105A900040E8002CBCF1000FF6D1BFF35B8FE6D1DC
:105AA00002480B7030BD0248FCE700BF0000AD0BA0
:105AB0000200AD0B10B50368CB40DB0714D4012303
:105AC0008B400268BFF35B8F43EA020150E8004F4E
:105AD000944204D140E8001CBCF1000FF6D1BFF3A2
:105AE0005B8FEED1014810BD0148FCE70000AD0B13
:105AF0000400AD0B014BC3F80405704700F00140F2
:105B0000F7B50546F8B101281BD104224FF4807384
:105B100001464FF0804003440244C0F808130026B9
:105B2000012111601E608D421B688DF8071008BFAF
:105B30000DF1070642F210744FF0804745B1012D78
:105B400028D003B0F0BD0C224FF482730221E0E7AD
:105B5000D7F8183403F480333EB9002BF1D001207C
:105B600003F08DF9013CF3D1EBE7D7F8182402F0EC
:105B700003023260002BE4D09DF80700012803D116
:105B800003F07DF9013CD9D1012DDAD10C4B002273
:105B90005A71D6E7D7F80C3403F480333EB9002BA2
:105BA000F4D0012003F06BF9013CF3D1EEE7D7F814
:105BB0000C2402F001023270002BDDD1E6E700BFB9
:105BC0008C130020044B1A7922B9012218609A80A4
:105BD00002487047024870478C1300200000AD0B4C
:105BE0000C00AD0B08B5094B1B682BB10020FDF76D
:105BF00073F808B9FDF74EF84FF080430022C3F860
:105C00001825034B01221A7008BD00BF8C13002019
:105C10001414002010B510B1012843D010BD4FF06E
:105C20008043D3F81814D3F81824C80321D502F000
:105C30000303012B04D013B10020FFF761FF002301
:105C40004FF080420220C2F8183508224FF48273C8
:105C500003F180430021196002F180421C68012495
:105C60001460154A12680AB34FF08043C3F8040366
:105C7000D4E7D3F81424D107E1D5D3F81C24920734
:105C8000DAD40D4A12681AB10222C3F80423C5E718
:105C9000D3F80421002AFBD00022C3F80421D3F852
:105CA0000431BBE700224FF48073D1E71A68002A61
:105CB000FCD019601B68B1E78C130020F8B54FF0D9
:105CC00080431C4ED3F804430125002704B9F8BDD6
:105CD000B4FA84F0C0F11F00830003F580739BB217
:105CE00003F1804305FA00F2196892B224EA020433
:105CF0000029EBD01F601B684FF08043012AC3F8D6
:105D0000082305D0022A08D03368C0B29847DDE7DF
:105D10007379002BDAD17271F6E7D3F81814D3F83F
:105D200018148907F0D1C3F81855C3F804239D60EF
:105D3000CCE700BF8C130020036803F01F025B094F
:105D4000026004D0012B034818BF002070474FF0B9
:105D5000A040704700030050034A430900F01F00B1
:105D6000D35C1844C0B27047169D000070B505465C
:105D7000FFF7F2FF0C4C08300E4634F81030DA050D
:105D800008D5C3F3432304EBC302284654F8333049
:105D900052689847A3682BB1E26831462846BDE8AF
:105DA0007040184770BD00BF2801002008B5FFF7FC
:105DB000D3FF034B083033F81000400B08BD00BF81
:105DC0002801002008B5FFF7C7FF034B083033F860
:105DD0001000C0F3400008BD2801002008B5FFF7FF
:105DE000BBFF034B083033F81000C0F3401008BD70
:105DF00028010020034611F0010010B5CCB20DD1EE
:105E0000A207C4F3400012D5094AD2F82005586011
:105E1000C2F82005003818BF012008E04FF0A0416B
:105E2000D1F820251A60C1F82025002AE8D010BD3D
:105E30000003005010B5FFF78FFF124A083032F808
:105E40001030D9051CD5C3F3432123F4F85322F8AD
:105E5000103002F10E04002034F8023F13F4807F6A
:105E600003D0C3F3432399420AD001303028F3D141
:105E7000002342F831300448BDE81040FFF71ABE55
:105E800010BD00BF28010020A0010020F0B505468C
:105E900000200446012607468C420BD1114BD3F853
:105EA0007C2132B10022C3F87C21D3F87C3140F050
:105EB0000040F0BDE3B29B0003F580729B0806FA38
:105EC00003F31D420BD002F1804202F5C042D2F82A
:105ED00000C0BCF1000F02D01760126818430134F3
:105EE000DAE700BF00600040F7B506460846FFF756
:105EF00033FF194F00F108050C4637F81530DB0762
:105F000027D5304603F023F82046FFF767FF40B15E
:105F10002046FFF74BFF316800F5A270002341F8DF
:105F200020302046FFF786FF002301A827F8153010
:105F30000194FFF701FF019B00EB8300074BD0F8B2
:105F40000027134043F00203C0F80037044803B0B1
:105F5000F0BD0448FBE700BF28010020F0F8FCFF7B
:105F60000000AD0B0400AD0B2DE9FF411646804645
:105F70000846FFF7F1FE0D463168044609B328468E
:105F8000FFF720FF18B12846FFF728FF10BB0023BA
:105F9000CDE900338DF80E308DF80F300DF10F0282
:105FA0000B4628460DF10E0102F079FF474A04F135
:105FB000080132F8113023F0020343F0010322F804
:105FC0001130736863B328461F785968FFF7FAFEEB
:105FD00010B1D1B13E4826E03C4A04F1080032F845
:105FE000103023F02003DB04DB0C22F8103061B109
:105FF000032FEFD87168496891F800C0D8F80010F5
:10600000A7B90CF5A27C41F82C70304A04F10801C4
:1060100032F8113023F01C0343EA870322F81130D1
:10602000B3684BBB2B4804B0BDE8F08101EB8C0199
:1060300043EA4C33D1F810E52EF0030EC1F810E519
:10604000D8F8001001EB8C0E43F02003DEF8101599
:1060500022F8103021F44F3121F44071CEF81015A0
:106060002902DEF8108501F47C5141EA074141EA3A
:106070000801CEF81015C8E7D3E900672846FFF7F6
:10608000D9FE002ECED0114DD5E90023964203D182
:106090009F4201D1002209E00F480DF10F01FFF7E7
:1060A000E5FC0C4B9842BED19DF80F2045F83260BC
:1060B00005EBC20308345F6035F8143043EA42232D
:1060C00043F4807325F81430ACE700BF28010020AA
:1060D0000400AD0B0000AD0BA00100202DE9F04342
:1060E0000C4685B08046204611461E46FFF734FE1A
:1060F000054629B32046FFF765FE18B92046FFF78D
:106100006DFE18BB314F05F1080937F8193013F04F
:106110001C0F02D04B78012B18D001238DF80F30C3
:106120000023CDE900134A1C8B1C20460DF10F0102
:1061300002F0B5FE37F8193043F0030327F81930A1
:10614000002E41D02046FFF73DFE18B9204805B08B
:10615000BDE8F08396F800C0D8F800301B4F0CF56E
:10616000A272002143F8221005F1080237F812103C
:1061700021F02001C904C90C27F8121075781DB34D
:10618000D8F80000B67800EB8C002D04D0F810355C
:1061900023F4991323F4F853C0F81035230203F4C1
:1061A0007C5305F440353605D0F810E52B4306F452
:1061B000801641EA4C31334341F0200143EA0E039B
:1061C00027F81210C0F810350248C0E72801002057
:1061D0000400AD0B0000AD0B014BC3E90212704788
:1061E0002801002010B508461446FFF7F7FD50B10E
:1061F0000846FFF7B1FD054B083033F8103004486E
:106200005B0B237010BD0348FCE700BF2801002092
:106210000000AD0B0400AD0B70B5164D95F8804035
:1062200006462CBB2146602205F1100003F0C3FA9C
:1062300030682E6F21468E420ED10023C0F87C318B
:10624000D0F87C3140F30730FCF724FD01230A48E5
:1062500085F88030AB6770BDCBB29B0003F58072D0
:106260007C2B08BF845001F1010108BF8358E2E78D
:106270000248F0E7280100200000AD0B0C00AD0B38
:10628000034B93F88000003818BF0120704700BF0F
:10629000280100200148FFF70DBC00BF9C01002031
:1062A0000148FFF7E3BB00BF9C01002073B5036802
:1062B0001646D3F80423002AA8BF4FF00042054633
:1062C000A8BFC3F8042308460C46FFF787FD00B3B8
:1062D0000846FFF777FD0146D8B92046FFF766FD6F
:1062E00004B2A40004F5807203462868815029682E
:1062F00082582144D1F8102542F00102C1F810253E
:106300002EB12968012202FA03F3C1F8043302B066
:1063100070BD2046FFF720FD0F4B083033F81030DA
:10632000C3F38203042B12D0052B12D001A80194D1
:10633000FFF702FD019AD0F81035D34003F00103B6
:10634000991C204602B0BDE8704002F0F1BD032167
:10635000F7E70221F5E700BF280100202DE9F04F03
:10636000694BDFF8A881D3F80403D8F87010C0B2E5
:1063700089B040F00040FFF789FD051E2FDAC246C4
:1063800000235AF87C1F06A8CDE90633FFF732FD3B
:106390005F4B01930DF118094FF0000B019A12F8B1
:1063A000013B0192DA0803F007031AF8022022FAEF
:1063B00003F3DA071CD409F10409BBF1000F14D070
:1063C000D8F870104FF00040FFF760FDD8F87C104F
:1063D00006A8FFF70FFD0028DAD125F000450124BB
:1063E000002D79D109B0BDE8F08F4FF0010BD5E752
:1063F000484B5B440293D9F800100029DBD0029B84
:1064000091FAA1F11C78B1FA81F141EA44142046D5
:10641000FFF7A2FC0830059438F81070C808BB08D4
:1064200019F80020039301F00701012303FA01F199
:1064300022EA010209F8002005A8FFF77DFC059A71
:10644000039B02F5E072C7F3820650F822205B0737
:106450003746C2F3014224D520463946D6B2FFF76B
:1064600085FC05A80594FFF767FC059B03F5E07321
:1064700050F82330C3F301439E4207D10021204648
:1064800002F056FD3146204602F052FD05A8059463
:10649000FFF752FC059B012202FA03F3C0F82035F6
:1064A000A9E7022A0CD10321204602F041FD06F0A3
:1064B0000503012BEAD139462046FFF757FCE5E7F3
:1064C00002212046039202F033FD032EF3D0039AFB
:1064D000032ADBD1022EEDE795FAA5F3B3FA83F395
:1064E00004FA03F29B0003F1804303F5C04325EA5D
:1064F0000205D3F81005D3F81015C0F30520C1F339
:106500000141FFF733FC6BE70060004028010020E9
:10651000269D0000269D000010B5184C237853BB23
:106520000278C2F34003920712D54FF08053D3F89C
:106530003021082A0BD1D3F83431052B07D8104A63
:10654000D35C23B14FF080430122C3F838260123E6
:106550004FF08042C2F88035037803F00103C2F89F
:1065600078350020FCF7B8FB08B9FCF793FB012352
:106570000448237010BD0448FCE700BF1514002038
:10658000289D00000000AD0B0C00AD0B4FF08043C8
:106590004FF46072C3F80823014B00221A60704761
:1065A0009413002008B5FFF7F1FF03680BB1014A0F
:1065B000136008BD9413002010B54FF08043D3F84A
:1065C0000443620707D54FF4847002F0E8FC10B171
:1065D0001E4B1B689847A30608D54FF48A7002F03B
:1065E000DEFC18B11A4B00201B689847600608D5DE
:1065F0004FF48C7002F0D3FC18B1154B01201B68CE
:106600009847210608D54FF48E7002F0C8FC18B1E7
:10661000104B00201B689847E20508D54FF4907096
:1066200002F0BDFC18B10B4B01201B689847A30575
:106630000AD54FF4927002F0B2FC28B1054BBDE8C8
:1066400010401B680220184710BD00BF9C1300209B
:10665000981300209413002001460148FFF706BA62
:10666000AC01002038B5EFF31185202383F31288A5
:10667000BFF36F8F064B9C6802F0CAFC85F311884C
:10668000BFF36F8F2046BDE83840FCF7ABBA00BFC0
:10669000A013002038B50A4B53F82040013053F8BE
:1066A0002050A54200D838BD606830B1037FDB07B9
:1066B00001D402F0B0FC0834F3E723689847FAE706
:1066C0002C9C000070B52B4B2B4C2C4D012286B01E
:1066D00003201A70FFF7DEFF01F096F902F0B6FC16
:1066E0000420FFF7D7FF2646AE4204F1300410D352
:1066F00000F0E4FD204C224EAC4226D300F0F2FD27
:10670000FAF770FE1F4A137B23F00103137306B0E0
:1067100070BD54F80C3C059354F8103C049354F8A5
:10672000143C039354F8183C029354F81C3C019316
:1067300054F8203C009354E90A2354E90C0100F07A
:10674000CBFB54F8303C5E65CDE7D4E90A23B3F1C6
:10675000FF3F08BFB2F1FF3F05D052EA03012068B6
:1067600003D100F09DFE3034C6E73146183001F009
:106770003FF8F8E7161400207C9A00007C9A00008D
:1067800025940000C004002008B50348034A0021F6
:10679000121A02F057FC08BDE00200201814002075
:1067A00070B5002386B00122CDE90423134E144DA9
:1067B00001930F22CDE902321249142303FB005545
:1067C00006EBC01604464FF4C07000FB04110E4BDC
:1067D00000954FF4A072304600F07EFB737B0B4AAD
:1067E000EE6023F0040373734FF4046304FB03337C
:1067F00013442C746B6006B070BD00BF40040020D1
:10680000A013002000250020F1900000C01C0020F3
:10681000BFB50020FFF73EFF294B83F30888294CC2
:10682000294F636943F4007363610025E02384F812
:106830002230E57725766576A57684F82050636A60
:1068400043F4E023636284F82350FCF799F9FCF7E2
:10685000DDFA4FF0FF33A362E362FCF79DFBFCF728
:10686000F9FA1A481A4C00F0AFFB02F0BDFB012008
:10687000FFF710FF0220FFF70DFF00F067FD154B3B
:1068800015495C61154B05930123CDE903534FF482
:1068900080623B46CDE901550095204600F01CFB87
:1068A000627B064622F004022046627302F07DFD00
:1068B0002846FFF775FF3A4631462046FCF788FA2E
:1068C0000025002000ED00E0C56600004005002026
:1068D000C0040020A0130020802600202E9D000070
:1068E00038B5064C064D0020AC4200D338BD2046DA
:1068F00002F0ADFB0028F9DB1C34F5E7C4010020F1
:10690000E001002073B50C46EFF31181202585F3DB
:106910001288BFF36F8FC5685DB125602B68C360B7
:10692000836901338361002081F31188BFF36F8F86
:1069300011E052EA030603D125606FF00B00F3E784
:10694000CDE900230246083000F016FC18B9034BCD
:106950009B681B69236002B070BD00BFA0130020BC
:106960002DE9F341044617461E46EFF31188202314
:1069700083F31288BFF36F8FC368334A7BB180689B
:106980009168884219D057EA060318D188F3118814
:10699000BFF36F8F6FF00F0002B0BDE8F081916818
:1069A00091F90E1021610133E3609368A36088F3CD
:1069B0001188BFF36F8F0020EEE72169F2E791F9AC
:1069C0000E1090F90E309942A8BF19466FF07E0262
:1069D0009142B8BF11468B422DDD02F094FB054673
:1069E000CDE9007619482246414600F0C5FB002853
:1069F000E1D0EFF31186202383F31288BFF36F8F6A
:106A0000A068D0B1236821699C420AD04BB193F9A8
:106A10000E309942A8BF19466FF07E039942B8BF65
:106A2000194602F070FB40B10848314600F020FCE6
:106A30006FF00A00B0E70025D2E7002DF4D186F30D
:106A40001188BFF36F8FF3E7A01300201714002005
:106A5000F8B583680546002B3FD0234A92689342DD
:106A60003ED1C368012B03D9013BC3600020F8BDB0
:106A7000EFF31187202383F31288BFF36F8F01692F
:106A8000806802F040FB2C68A54207D10023C5E9CD
:106A9000023387F31188BFF36F8FE7E7002CF5D03F
:106AA000D4E9003213605A60637B002623F00203AE
:106AB0006373C4E90066A66004F1180002F034FDB7
:106AC000AC6094F90E302B612046A66702F06DFC95
:106AD0000648394600F0CCFBC8E76FF01500C6E762
