:10100000C0530020B1400000EFA801009D40000047
:101010009D4000009D4000009D4000000000000039
:10102000000000000000000000000000754100000A
:101030009D40000000000000154100009D400000A0
:10104000354300003D2101003543000035430000D9
:1010500035430000354300003543000035430000B0
:1010600035430000354300003543000035430000A0
:101070003543000035430000354300003543000090
:101080003543000035430000354300003543000080
:101090003543000035430000354300003543000070
:1010A0003543000035430000354300003543000060
:1010B0003543000035430000354300003543000050
:1010C0003543000035430000354300003543000040
:1010D0003543000035430000354300003543000030
:1010E0003543000035430000354300003543000020
:1010F0003543000035430000354300003543000010
:1011000053B94AB9002908BF00281CBF4FF0FF316E
:101110004FF0FF3000F00CB8ADF1080C6DE904CED3
:1011200000F018F8DDF804E0DDE9022304B07047B0
:10113000704700BF034611F8012B03F8012B002A6A
:10114000F9D17047034613F8012B002AFBD1181A76
:10115000013870472DE9F04786468C460846089EC0
:10116000154674461946002B40F0C2808542B2FAFB
:1011700082F245D94AB1C2F1200300FA02FC2EFAEC
:1011800003F3954043EA0C0C94404FEA154EA8B285
:10119000BCFBFEF8230C0EFB18CC08FB00F943EA5D
:1011A0000C43994528D9EB1808F1FF3704D299452B
:1011B00002D9A8F102072B44A3EB0903A4B2B3FBA5
:1011C000FEFC0EFB1C330CFB00F044EA0344A0427F
:1011D00014D92C190CF1FF3304D2A04202D9ACF17E
:1011E00002032C44241A43EA07401EB1D4400023D2
:1011F00034607360BDE8F0874746DDE76346F1E79A
:1012000092BB431B01214FEA154EAFB2B3FBFEFC6C
:10121000200C0EFB1C330CFB07F840EA03439845F7
:1012200062D9EB180CF1FF3004D2984502D9ACF129
:1012300002002B44A3EB0803A4B2B3FBFEFC0EFB9D
:101240001C330CFB07F744EA0344A7424ED92C1980
:101250000CF1FF3304D2A74202D9ACF102032C44B3
:10126000E41B43EA0040C0E7C2F1200320FA03F187
:10127000954090402EFA03F303434FEA154EAFB268
:10128000B1FBFEFC0EFB1C10190C0CFB07F841EA2D
:101290000041884504FA02F422D969180CF1FF30A4
:1012A00004D2884502D9ACF102002944A1EB08011F
:1012B0009BB2B1FBFEFC0EFB1C110CFB07F743EAD3
:1012C00001439F420ED9EB180CF1FF3104D29F422B
:1012D00002D9ACF102012B44DB1B41EA004192E749
:1012E0006046E3E76146F7E76046A3E76346B7E792
:1012F000834206D916B9002108467BE7C6E900E01B
:10130000F9E7B3FA83F78FB9834201D3724508D85E
:10131000BEEB020460EB030301209C461EB90021D2
:1013200068E73846FAE7C6E9004CF8E7C7F1200C51
:10133000BB4022FA0CF41C432EFA0CF120FA0CF3F9
:10134000B84001434FEA14490EFA07F5B3FBF9F828
:101350001FFA84FE09FB18300B0C08FB0EFA43EA57
:1013600000439A4502FA07F240D9E31808F1FF302A
:1013700004D29A4502D9A8F102002344A3EB0A0340
:1013800089B2B3FBF9F809FB183308FB0EFE41EAFA
:1013900003418E452CD9611808F1FF3304D28E45E4
:1013A00002D9A8F10203214443EA0040A0FB0298BD
:1013B000A1EB0E014145CE46434602D306D14D4531
:1013C00004D2B9EB020E68EB04030138002EA6D05C
:1013D000B5EB0E0261EB030101FA0CFC22FA07F3F4
:1013E0004CEA0303F940C6E9003198E74046C5E7F7
:1013F0004346D9E7000000002DE9F843D0E907385B
:10140000856903EB08042F34A5420F46164619D808
:10141000DFF86C80A3FB080117A3D3E90023FFF7D3
:101420006FFE0346601BA0FB080123F07F4412A35C
:10143000D3E90023FFF764FE20F07F403C6030607A
:10144000BDE8F883DFF838900BA3D3E90023A5FBB0
:101450000901FFF755FE20F07F440A480A2106A340
:10146000D3E90023E8FB0901FFF74AFE20F07F40A3
:101470003C603060BDE8F8838D49FD1A070000002C
:1014800000CA9A3B00166BF1002800F037812DE965
:10149000F04FC54C94F86A30DA078DB000F16881DE
:1014A00094F8292094F8353004EB820204EB83038E
:1014B000D66A9F6B0EB3354615F8020BC0F3801049
:1014C00008F0CEFC0368C6F802308388AB8033781E
:1014D0005B0606D50621284607F032F8002800F002
:1014E00049813D4615F8020BC0F3801008F0B8FCA6
:1014F0000368C7F802308388AB80337813F00E0F8F
:1015000040F08E80236A1BB10C200DB0BDE8F08F37
:1015100009F022FB8146002800F0398109F028FB00
:101520008246002800F030810BF020FF054600289D
:1015300000F02F81806F4FF6FF732B8605F11C0B97
:10154000002800F01D8105F16C0205F1680107F02B
:1015500003F8B5F8643023F4EF6323F0070343F492
:101560008C7343F00103A5F8643095F8433003F021
:101570003F0363F07F0385F8433095F87E3023F016
:10158000070385F87E3095F8483023F00F034FF0BD
:10159000000885F848304FF4C023C5F87831284654
:1015A000C5E91588C5F87880A5F87C8085F8458060
:1015B000A5F83680C5F83A80C5F85C80A5F87E812C
:1015C000A5F874810DF026FD85F84081C5F8449199
:1015D0000CF032F995F8843160F3020385F8843118
:1015E0000CF030F995F8843160F3C50385F8843147
:1015F00095F8703168F3410385F8703105F1C40046
:101600000DF0FAFAC4E9189AC4F820B0C5E90588C3
:1016100085F80080ED6111F0C1FB002840F0AC803E
:1016200094F824300121C3F342030DF12B008DF80F
:101630002B3007F02DF90246002861D0797830462A
:101640000BF0B0F931235949A360594BB4F86870D5
:10165000A0FB01010025C01841F1070150A3D3E907
:101660000023C4E9055525706560E560FFF748FD76
:10167000206108F0B9FB00F109083FB9357805F0A1
:101680000F05A5F10105B5FA85F56D0994F824005B
:10169000236965F3000010F0010584F8240036D0BA
:1016A000444A0992002010600225434A434F0493A4
:1016B0000BAE019305920321CDE902000694434647
:1016C0000090089607972A460B9508F08FFA314646
:1016D00009F0D6FAA0B93A4905914AF2D8330093F5
:1016E000CDE90300CDE9010007970896069443462B
:1016F000012203210B9508F05DFA2EE00BF0A4B84F
:10170000236A002B3FF400AF0BF05AF8FCE6294A9D
:101710002C48049303F24713069402959121136019
:10172000A7FB000301FB0731244B0793224B0593D2
:101730004FF6FF730992022703930BAE18A3D3E968
:1017400000230B970896FFF7DBFC4346CDE90050DA
:101750003A462846032108F049FA314609F090FA42
:101760000028CDD194F86A3043F0010384F86A3040
:101770000020CAE61220C8E60BF022F80320C4E6D7
:1017800005F17000A867DEE6484609F0EBF907208E
:10179000BBE6504609F0F2F9484609F0E3F9F6E7EE
:1017A0008D49FD1A070000008C1D002000CA9A3BDD
:1017B0008C49FD1A801D002021CA0000499F0000AD
:1017C00025C50000002AE78470B590F824308AB05F
:1017D000C3F342030D46044601210DF123001646D2
:1017E0008DF8233007F054F87178024628460BF044
:1017F000D9F81F491F4AA0FB0131981841F1070190
:1018000019A3D3E90023FFF77BFC2369984205461F
:1018100022D21B1A00220192174A02930221174B6F
:101820000991A21ACA40A3FB0232D20800230A443B
:1018300009AE13490591CDE903330321D2B20696CF
:101840000093184608F032FA314609F019FA38B90F
:10185000256100200AB070BDFBD9C21A0023DAE767
:101860000C200AB070BD00BF8D49FD1A07000000B2
:1018700000CA9A3B8C49FD1A8C1D0020F712DA4BE6
:10188000499F0000000000002DE9F04F06468DB092
:101890008A46012002219946154613F0BFF800221E
:1018A0000B900221012006F0A7FE3B494FF4C472C1
:1018B000304606F031FEC71C384B0093FFB201964C
:1018C0004B463A460121002008F04AFA10F0FD0F7D
:1018D0000ED0334A3349344840F68F0318F033FDB5
:1018E000002383F31188BFF36F8F0323184602DFB1
:1018F0002E4CA5FB044526A3D3E900232046294608
:10190000FFF7FEFB0896069633690493284B20F0F8
:101910007F48A8FB0331E01A264B07934FF00702DC
:10192000254B059302FB08114FF6FE7365EB010191
:1019300003934FF47A720023FFF7E2FB4FF0000BA2
:10194000CDE90180CDF800A04B463A46012158462A
:1019500008F030F910F0FD0F0DD0114A114912486E
:1019600040F6A40318F0EFFC8BF31188BFF36F8FE0
:101970000323184602DF0B9B13B90DB0BDE8F08FAF
:101980000122022110460DB0BDE8F04F06F034BE32
:101990008D49FD1A07000000A00B00200DD30000A8
:1019A00098E601005CE701007CE1010000CA9A3B77
:1019B0008D49FD1AADD20000251E01000000000077
:1019C0002DE9F0418468228E4FF6FF739A428CB065
:1019D00045D0054620460DF091FD2B7D012B00F0F2
:1019E0003B81022B00F02E81002B00F00D8194F83A
:1019F0004061002E40F029812B8A678F94F94320A3
:101A0000CDE90A6673B3002AC0F273810023A4F8FB
:101A10007A31AA7C238FFD1802F003030135012BD4
:101A2000ADB23BD0B4F87E31002B00F01E819D4258
:101A300080F072815B1B9BB20022062BA4F87E31E2
:101A4000628740F20F8194F943309342C0F269817A
:101A5000002326E09DF8271020460BF0D1FF0CB0A4
:101A6000BDE8F081002AB8BF84F86561238FAA7CA5
:101A7000FD1802F003030135012BADB20ED0B4F80E
:101A80007A31002BCED0AB4240F255815B1BA4F8DB
:101A90007A31B4F87E31002BC9D102E00023A4F8DA
:101AA0007E3194F8482063F3820284F84820294666
:101AB0000DF1270220460DF0E9FA7430CAD0B4F8CF
:101AC00078312BB1AB4240F205815B1BA4F8783131
:101AD000B4F874312BB1AB4240F2F3805B1BA4F835
:101AE0007431658F16B9AF4200F0E2800135ADB2B6
:101AF00094F8C13013F0010731D1DDE90A130A4629
:101B0000002B40F0E580002900F0D4801F461846E5
:101B1000228EE4690694CDE903560332A64D029065
:101B2000CDE90017D2B201210020059508F0BEF8DA
:101B300010F0FD0F93D009F0CDF884428FD09F4A6A
:101B40009F49A0484FF4AE6318F0FDFB002383F3D8
:101B50001188BFF36F8F0323184602DF7FE794F9E4
:101B600043206FF30003002A84F8C130C0F298804C
:101B700094F86400C0F3C00100F0070010F02AFFE1
:101B800094F8642094F8653002F003012831C2F320
:101B90004002C900D14003F003022832C3F34003DE
:101BA000D200DA40638D03F23F13B1F5A07F2CBF62
:101BB0005B1803F5A073B2F5A07F2CBF9B1803F54B
:101BC000A0730344804A81480721E3FB00211046AB
:101BD00077A3D3E90023FFF793FADDE90A1320F096
:101BE0007F4220692261904235BF171A801A002077
:101BF00000270A46002B8BD157EA010C88D1002818
:101C000058D019461F4683E794F87E3003F0180336
:101C1000182B7FF4ECAEA18EB4F876218B1D9A427E
:101C2000C4BF931F5B1AB4F87211CCBF9BB21346AA
:101C3000994200F09C80A4F87231A4F87431A4F8A1
:101C40007821D4E63D2684F84061314620460CB028
:101C5000BDE8F0410BF0D4BE0023A4F87831A4F81D
:101C60007431C4E6012633461BE7628E052A97BF0E
:101C7000013240F2E2434FF4FA7392B203FB02F2F4
:101C8000B4F87C3142F2107101FB0323013BB3FB3A
:101C9000F2F39BB2A4F87E31002B7FF4C8AE00E7CC
:101CA00094F86500012100F0070010F095FE67E749
:101CB00035461DE7002D43D00027114638463B46E8
:101CC00026E70023A4F8743120460DF081FA08E7D6
:101CD00038461DE708F092FF0146A0B30023A4F8A0
:101CE0007831238EC3801B230371006808F058FFEE
:101CF000EEE694F865316BB3013B84F8653104F18D
:101D0000C40840460CF0BAFFB8B340460CF0B6FF2A
:101D1000B8B30023638779E6082120460BF070FEF4
:101D20009DE6A7B9D4F868315A0813F0010336D1FB
:101D3000C4F868218CE63E2120460BF061FE8EE659
:101D4000002EB9D18BE60123A4F87831C0E6134602
:101D50000126A6E60AAA0BA92846FFF74DFBDDE9F6
:101D60000A231343CBD0237884F86531C7E7B4F84E
:101D7000781100297FF43BAE5FE7FF200BF002FEF5
:101D8000C3E70246D4E91A0106F0FEFB0028C0D1E1
:101D900094F848301B0744BFA38E638736E642F0B1
:101DA00000421E46C4F868213B467AE6AFF3008045
:101DB0008D49FD1A0700000069D2000098E6010075
:101DC000D8E701007CE101008C49FD1A00CA9A3B6A
:101DD0002DE9F04F87B0CDE90423BDF84420037806
:101DE0000292BDF84820BDF840A0BDF84C90878F06
:101DF000019104460392002B00F0EE80013FBFB238
:101E0000A368D4F8FCB0A7EB090292B2002B0092B1
:101E10000ADAE168626823F0004391422CBF8B44E8
:101E20009344A360ABEB030B94F86400C0F3C001D0
:101E300000F0070010F0CEFD658E052D40F2C48045
:101E4000009B15FB03F5ADB240F2E248BAF1050F75
:101E500040F2AE8094F8652094F8641002F0030319
:101E60002833C2F34002DB00D34001F003022832E2
:101E7000B3F5A47FC1F340014FEAC20222FA01F296
:101E800038BF4FF4A473B2F5A47F2CBF9B1803F5A1
:101E9000A47303F2D51318447B4A7C4B0721E0FB63
:101EA000023118464FF09613A3629623A38574A3BC
:101EB000D3E90023FFF724F9564620F07F4040F293
:101EC000E24308FB05F103FB06F6B1FBF6F81FFA47
:101ED00088F5206106FB05F08142A8465AD2401AD7
:101EE000694967A3D3E90023A0FB0101FFF708F9C3
:101EF00020F07F408344E38EB4F8042113449944D6
:101F000094F84330A9EB0709C844DB09A4F83680EC
:101F100069D15F4A5F49604840F6671318F013FAC9
:101F2000002585F31188BFF36F8F0323184602DF66
:101F30003746029BA386039BA4F87C31314620469A
:101F4000A4F832A00DF0DEF8544BA18E3344881D66
:101F5000B3FBF6F39AB29042A4F8762104D2C1F50D
:101F60007F41FA310A4492B2019BA4F8722113B165
:101F70000023A4F87E315B463A4629462046FFF707
:101F800083FC94F8703143F0010384F8703107B09A
:101F9000BDE8F08F091A3C4839A3D3E90023A1FB1F
:101FA0000001FFF7ADF820F07F40ABEB000BA2E79C
:101FB0004FF096130AF10106A3629623A385B6B2E9
:101FC0000A204FF4FA737CE7009B013515FB03F5FB
:101FD000ADB24FF4FA7839E7C38E1F44B0F804313C
:101FE0001F44BFB20CE7E26C0099636D02FB113332
:101FF000636510F023FF074694F86401C0F34200C4
:1020000010F01EFF074406FB07F7254B07F5742762
:1020100007F23F27A3FB0737BF0C636DE76405FB9F
:1020200007F072080344963A934228BF1346C4E966
:102030001423049B144D40F2E24808FB03F3E365CC
:102040000023A0FB0501C4F86C310DA3D3E90023E4
:10205000FFF756F8134B059AABEB000BA3FB0230CE
:10206000800A08FB00F0A0FB050105A3D3E90023CB
:10207000FFF746F8F71B20F07F455AE7AFF30080E3
:102080008D49FD1A0700000000CA9A3B8C49FD1AD1
:1020900098E6010054E201007CE101007FC3C90120
:1020A00083DE1B435917B7D12DE9F04F1346154670
:1020B0000A6853F8087BD2F80090B0F82EC00246A8
:1020C000044652F82EABD0F81E0094F81C800E4641
:1020D0009178628CA5F808C09970D4F82A306B60AA
:1020E00091B0D4F83A30C5F82230ADF83C2094F8DD
:1020F0003E2085F826200E9010AA12E9030005F173
:1021000022030C90ADF834101846052106F0C0FBF0
:1021100095F8273000F03F0060F3050385F827307D
:1021200094F83F30C3F3040285F82820A28EEA8297
:102130000128C8F3801808D903F01F031B3303F0EC
:102140001F030B2B01D892B2BAB90022C9F8142090
:1021500095F82C3062F3000385F82C300126E568F1
:1021600026715046214608F00FFD28682E71294639
:1021700011B0BDE8F04F08F013BD3368002159607D
:10218000E38EB5F816B02B8340F2E24303FB0BFB62
:102190003846638E0B930CF0C9FF94F83F2097F8F4
:1021A0006411520962F3430187F8641110F046FE8E
:1021B0000A9097F86401C0F3420010F041FE0A9AB9
:1021C00010440BFB00F0BA4A00F5742000F23F20E7
:1021D000A2FB00204FEA5B02800C963A28636A63F8
:1021E00094F8312040F2E24302FB03F36B64238F47
:1021F000A7F87C31594638460CF084FFAD4BAE4A07
:10220000C7F880215B44B3FBFBF39AB2A7F87621B1
:10221000298B881D824204DDC1F57F41FA310A44D1
:1022200092B2A7F872216B68C7F86831234613F899
:102230001C2FC2F340120A92DA0700F11281BDF896
:102240003430A4F823300C9884F81E804FF4807347
:10225000C4F81F00A383EB8AE3842B8B2385B7F894
:102260007C31638597F86431C3F3420384F82C30E2
:1022700038460BF087F8A882E08021465046746803
:1022800008F082FCAB8AE3801C2323710A9BD4F8FC
:102290000080002B40F0D9800A9B237721464046DE
:1022A00008F07EFC95F8494095F8488004F0070452
:1022B0000121204610F090FB08F00708824608F044
:1022C00003002830C8F3400804F00303C00020FADC
:1022D00008F02833B0F5A47FC4F340044FEAC303E9
:1022E00038BF4FF4A470E340B3F5A47F2CBFC018EF
:1022F00000F5A470DFF8C481714B00F2D510504492
:102300000721E0FB083118464FF09613C5E9033367
:1023100000243123BB607C6063A3D3E90023FC600D
:10232000FEF7EEFE20F07F4038610B99F3682D6BCD
:1023300040F2E24202FB013303F2B341A1EB0A0A8D
:1023400022460221012006F057F948460AF026FDF0
:102350000246AAFB0801924653A3D3E90023FEF7E5
:10236000CFFECDF80490B3685649009120F07F4825
:102370000AF102023A3BD2B243440121204607F05F
:10238000EFFC0128ABEB05057AD099F82430DB0788
:1023900053D438460AF0F6FF484BA5FB03A9044680
:1023A00041A3D3E9002350464946FEF7A9FE464B18
:1023B000B668464A079220F07F45A5FB0331BAEB89
:1023C0000300434B05934FF4F573069708933B695D
:1023D0004FF0000BCDE903B34FF0070303FB0511EA
:1023E00069EB01014FF47A720023FEF789FE033492
:1023F0003A3EE4B2CDE90150CDF8008033462246A2
:102400000121584607F0D6FB10F0FD0F0DD0314AE0
:102410003149324840F2EB1317F095FF8BF31188E6
:10242000BFF36F8F0323184602DF012202211046FB
:1024300011B0BDE8F04F06F0DFB800230122009391
:102440001846114607F04AFCA3E795F8273043F0F9
:10245000400385F82730281D0FF0FAFD0123288559
:102460001BE71C4A1E491D48FD2317F06CFF002383
:1024700083F31188BFF36F8F0323184602DFDEE674
:1024800008F028FC814580D0124A1649134840F2D2
:10249000922317F058FF84F31188BFF36F8F032343
:1024A000184602DF71E700BF8D49FD1A07000000E2
:1024B00083DE1B437FC3C901404B4C0000CA9A3BDB
:1024C0008C49FD1AE51D01008D49FD1AB11D010061
:1024D000251E010074EC01005CE701007CE10100B5
:1024E0006CE40100D0EC0100F0B5C468636883B00F
:1024F0000546002B4FD111F0C1FE002011F0E4FE83
:102500000021084611F0D2FE00222521082011F0FA
:102510000FFF3D4B019301A811F0F6FE3B4940F23D
:102520005B6011F0A5FF237AC3F3420262F3061346
:102530002372204610F088FE27682E68384610F077
:10254000E5F906446A6806F10901012012F0B8F8BD
:1025500012F076F920460AF02FFC811C3246C9B2EF
:10256000384610F0E1F9054600BB204610F076F938
:1025700010B9002003B0F0BD254A2649264840F294
:10258000294317F0E0FE85F31188BFF36F8F032313
:10259000184602DFEDE793F82C309B07ABD01F48BD
:1025A000214611F029FE11F00FFFE2E7184A1C49FD
:1025B000194840F2114317F0C6FE1A4B0721A5FB3C
:1025C000030301FB05310EA3D3E90023FEF798FDB9
:1025D00015490246154817F0B6FE002585F3118807
:1025E000BFF36F8F0323184602DF1148214611F015
:1025F00003FE11F0E9FE6FF08B00BBE7AFF3008044
:1026000000CA9A3B00000000D6BE898E5555550081
:10261000B0EE01004CE301007CE10100B12A0100B1
:1026200054E201008D49FD1A60EF010034EF010012
:102630004D2E0100000000002DE9F041C468A28A7F
:102640004FF6FF739A4282B000F0DF80054611F02A
:10265000B1F82B89628B208CA3831A4492B2104468
:1026600094F82730E28380B2411C21845E064FF04B
:102670000001618304F1220100F1A18003F03F0019
:102680000B4694F82810009004F129000FF098FCF4
:102690000646D4E90C31A28B02FB0333A26B134430
:1026A000E26B8B4294BFD21852188A4228BF0A4666
:1026B000E263616C226C94F849301144616494F8CF
:1026C000622094F82C10C3F3020363F3061112F096
:1026D00004024FF0000384F82C10A363236478D025
:1026E00011F0CCFD002011F0EFFD201D11F00CFECB
:1026F0002389A17A40F25B6043EA014111F0B8FE00
:10270000304610F023F92146594811F075FDA08993
:1027100011F0CAFF94F8482094F84900C2F3C003AE
:10272000002102F0070200F0070011F007FF204629
:1027300011F0EAF827682E68384610F0E7F80644EA
:102740006A6806F10901002011F0BAFF804612F014
:102750004BF8002012F062F8E36B94F8490003F1A3
:102760002F02636C00F00700012103EB420511F01A
:102770001DFE4544054494F8490000F00700022876
:1027800025D004280CBF4FF4BC73282301211D441D
:1027900011F00EFE284412F019F8A18A03313246D6
:1027A000C9B2384610F0C0F80546002834D120469A
:1027B00010F054F8D0B9002002B0BDE8F0810A460C
:1027C00003F03F03218D0FF047FC064661E7182315
:1027D000DCE7D4E9130105F0D7FE002880D194F896
:1027E000623043F0040384F8623079E7214A2249D9
:1027F00022484FF4B07317F0A6FD85F31188BFF39C
:102800006F8F0323184602DFD5E71D48214611F0DC
:10281000F3FC11F0D9FDCEE7164A1A4917484FF4D8
:10282000AB7317F090FD184B0721A5FB030301FBC9
:1028300005310DA3D3E90023FEF762FC13490246DC
:10284000134817F080FD002585F31188BFF36F8FC3
:102850000323184602DF0F48214611F0CDFC11F08A
:10286000B3FD6FF08B00A7E700CA9A3B00000000A1
:10287000713B0100ECEF01004CE301007CE1010041
:10288000B12A010054E201008D49FD1A40F0010017
:1028900034EF0100912A0100014817F047BD00BF45
:1028A000B4F2010011B1024817F040BD0148FBE746
:1028B000CFF20100E6F2010070B51B488CB017F0B2
:1028C00035FD002002F0A0FD064620B1174817F0A4
:1028D0002DFD0CB070BD164D164817F027FD0FCD1D
:1028E00007AC0FC42B68236040F20113ADF80C3025
:1028F00006238DF8083002AB049340F60923ADF8A7
:1029000014300D4B069300963346022203A907A804
:1029100003F0ECFA044608B10848D8E7084817F075
:1029200005FD2046D5E700BFFEF201001AF30100C5
:1029300010DE010032F3010049F3010054F30100FD
:102940006AF30100014B1B68184700BF30020020EA
:10295000014B1860704700BF3002002030B585B0D1
:1029600004460D461022002168461BF00EF8022393
:102970008DF802302A46044B01932146684617F031
:10298000B1F805B030BD00BF4529000080B505464F
:102990000E461746984616F0BBFD03461BF006F898
:1029A000DFF81890044649F8003042463046394670
:1029B000A84754F8090001F097FB00BF0800000089
:1029C0002DE9F047058B04462807904611D40229CB
:1029D00005F0070540F0CC80204617F0DCFC78B10C
:1029E0000138218B042811D8DFE800F0C2106D8572
:1029F000950001290CBF45F0100545F02005258301
:102A000088F31188BFF36F8FBDE8F08701F0070AE4
:102A1000AA4500F0A5800027B9463E46A368002BD2
:102A200000F0BC8041F00801218388F31188BFF3D6
:102A30006F8FA168002900F0BA800D68002900F0AE
:102A4000B680D1F80480334652462046C047002D58
:102A500076D02B6829461D46F0E701F007035A1F80
:102A6000012A1BD8002221F00701062B276889B212
:102A7000C4E9002209D13B4603E0628B0132628344
:102A80001B68002BF9D141F002012183204617F089
:102A900082FC00287AD041F0200176E0042B0AD194
:102AA00021F0070189B22183204617F074FC10B190
:102AB00041F020012183218B01F0070AAA454FD064
:102AC0000027B946AAE7236921F0070141F0060172
:102AD000062DD3F8009021832DD1B9F1000F3FD0FE
:102AE00041F00801218388F31188BFF36F8F3A49C1
:102AF0002046C84729E021F00701236941F004017D
:102B000089B2042DD3F804902183E6D000273E46F5
:102B10004FF0040A82E721F00701236941F0050123
:102B200089B2052DD3F808902183D6D000273E46E0
:102B30004FF0050A72E700273E464FF0060A6DE7A0
:102B40002B4687E7B9F1000FD1D1EFF3118820238D
:102B500083F31288BFF36F8F238B23F00803238343
:102B6000258BEA062ED525F01003238305F00705F3
:102B70006669218B002EBFF670AF00232768C4E979
:102B8000003321F0070141F001012183218B01F085
:102B9000070AAA454FF000097FF440AF002F9CD0F0
:102BA00041F00801218388F31188BFF36F8F002F54
:102BB000C8D03D68394633465246204617F017FCC8
:102BC0002F46F4E7AB067FF51BAF25F020032383E8
:102BD00005F0070500E700BF1BA40100014B0360DF
:102BE0000020704758DE0100F0B40C4B0C4E5F6AB9
:102BF0000C4BB34203D36FF08500F0BC70475D68A7
:102C0000BD4209D31C693CB195F802C00579AC45B9
:102C100002D12346F0BC18472433EAE728100020ED
:102C2000300800200C0800202DE9F047134CDFF895
:102C30005080DFF8509005460E461746444503D3B2
:102C40006FF08500BDE8F0876268D9F824309A42B9
:102C500012D3A36983B190782979884205D13A4685
:102C600031462846BDE8F04718475279012A03D17A
:102C70003A463146284698472434DFE70C080020BE
:102C800030080020281000202DE9F0410B4CDFF81F
:102C9000308005460E461746444502D36FF0850046
:102CA00009E063690BB92434F6E73A463146284611
:102CB00098470028F7D1BDE8F08100BF0C0800203C
:102CC0003008002010B5044619F0CFFD10F1780F40
:102CD00000D050B9054A204617F014FDD2F8C43090
:102CE00023EA0003C2F8C430002010BD28100020E1
:102CF000024B00221A605A60704700BFE3100020A8
:102D000070B50B4B0B4CA34201D3002070BD196A68
:102D10001E7F00220439D5B2AE4201D82433F2E737
:102D2000013211F832508542F5D10120EEE700BFA3
:102D30000C0800203008002008B509480378C3F3C8
:102D400041130A3350F823303BB100F1080200F17F
:102D500010019847C043C00F08BD1846FCE700BFEC
:102D60002810002004282DE9F14FDFF89890044640
:102D70000F4616D001282DD1DFF88C8098F8B93095
:102D800043B300F0D9FD214D4D4520D2D5F820B0F8
:102D90004FF0000A2B7F5FFA8AF6B34204D824353D
:102DA000F2E7FFF7A5FFE7E70BEBC6060AF1010A1A
:102DB000307919F05AFD0246307917F0A3FCD8F8A3
:102DC000C430002A23EA0003C8F8C430E2DA002342
:102DD00088F8B9300D4D4D4508D30B4B1B6A6BB1CC
:102DE0003946204601B0BDE8F04F1847EB681BB1EB
:102DF0003A462146284698472435ECE701B0BDE81D
:102E0000F08F00BF30080020281000200C080020A0
:102E100073B5C4B263060D468DF8074007D020464F
:102E2000FFF76EFF78B10D4B93F8BA0058B10B4E17
:102E3000204655B112F068FBF3691BB10DF1070193
:102E400008209847012002B070BD12F085FBF3699D
:102E5000002BF7D00DF107010920F2E72810002020
:102E600073B586788DF80060037942791C4C43EA8B
:102E70000223ADF80230C378304603F003038DF827
:102E8000043017F03FFCD4F8C430184205460BD08C
:102E9000304600F033FD3046FFF714FF1AF005FB13
:102EA00010B9962016F0F2FA684612F009FB10F1FC
:102EB000780F03D010B1002002B070BD9DF8000063
:102EC00012F086FB10F1780F01D00028F3D1D4F86E
:102ED000C43001202B4384F8B900C4F8C430EBE7B8
:102EE000281000202DE9F047924DAB6904460E46AC
:102EF0001746C3B9207800F01F00012876D00228B9
:102F000000F0DC8000BB94F900103A686378002977
:102F10002EDA062B0CD0082B25D0ABB95370012329
:102F20001370022303E198470028E3D100200DE04D
:102F30006388190A0A1F012A8C4605D9072903D874
:102F4000DAB26B6A1C781CB96FF01500BDE8F08727
:102F50005D78654503D1824200F0E480013023446E
:102F6000F0E71B78E3E095F8BA3013700123DEE058
:102F7000052B11D0092BE7D163886E6A002B32D163
:102F8000FFF7B6FE638885F8BA30EB69002BCDD029
:102F9000694903209847C9E7A07812F07FFA002812
:102FA000C4D0D1E77378042B10D0052B11D0022B9D
:102FB00004D177796388BB4208BF012033781E446F
:102FC0003378002BEED10028BED0D9E796F80380E5
:102FD000F4E76388BB42F1D1B8F1000FEED130467F
:102FE000FFF73EFFEAE7FF27B846E9E795F8BA3072
:102FF000D7F800C0002BA7D06F6AA28894F804E02D
:103000003B46187800289FD05978022904D193F8BC
:103010000480F04500F292800344F2E78CF800301F
:103020008CF80130316081E71F4493E00B2B8BD18A
:1030300000264FF0FF08C146B24606E07B78042B1D
:103040000FD0052B21D03B781F443B78002BF5D1C6
:10305000EB6913B1514607209847002E7FF466AF05
:1030600072E797F80280A38897F803909845EAD111
:1030700063889945E7D1B8F1070F1CD805EB080321
:10308000BA4683F8BB900126DDE7A3884345DAD131
:10309000A3784B450AD0BE78304600F02FFC30466E
:1030A000FFF710FEB0FA80F67609CCE73846FFF756
:1030B000D7FE0646C7E7BA460026C4E794F90020C3
:1030C0006378002A18DA002B7FF43EAF24793F683A
:1030D00063060AD02046FFF713FE00283FF434AF02
:1030E00095F8BA30002B3FF42FAF3946204612F046
:1030F00053FA00237B7014E7012B08D0032B7FF4D5
:1031000023AF6388002B7FF41FAF012103E06188A8
:1031100000297FF419AFA088FFF77AFE00287FF41A
:1031200005AF11E702293B607FF41BAF5B8833607A
:10313000FCE600BF28100020E210002094F90000F7
:1031400063780028BFF672AF002B3FF467AF0A2BFD
:103150007FF4FAAE3B78002B3FF4F6AE7978042981
:103160007FF462AFB9788A427FF45EAF072A96BFD8
:103170005219002392F8BB308CF80030F6E600BFFD
:1031800013B5164C237DF3B9E268A168019201AB37
:10319000802017F0C5FA019AA3681344A360E3687E
:1031A0009B1AE3606BB962B12369E2889A4208DD39
:1031B00094F8C82093FBF2F102FB11330BB9012301
:1031C000237502B010BD00231A46194680202375CE
:1031D00002B0BDE8104012F025BA00BF2810002050
:1031E00030B585B0002302460D460193002858D122
:1031F000002935D108220B460DEB020119F04EFBD8
:10320000002804DA802012F07FF905B030BD2A4C86
:10321000029A2260039A626004F13802A2609DF96A
:103220000820BDF80E302575002AC4E903550ADBD5
:10323000802B04D9802012F067F90020E3E713B156
:10324000C4E90333E1E7FFF777FD0028DAD0E2882D
:1032500023699A42D4BFE260E360FFF791FFD4E7AD
:10326000154CD4E90215002D01AB04DC19F016FB56
:103270000028CADAC6E72A4619F010FB0028D9DB75
:10328000019AA3681344A360E3689B1AE360002BD0
:10329000BBD104F13803A360FFF74EFD0028DCD159
:1032A000B0E78028B1D1044BDA68002AD5D11B7D64
:1032B000002BD2D1A9E700BF28100020054B064AF9
:1032C0009A62064ADA62064A1A63064A58629A61A4
:1032D0000020704728100020E52E0000E92B000098
:1032E000892C0000292C00002DE9F3410446474DAC
:1032F00047484FF0FF334FF0FF3215F069FA95F869
:10330000B830002B7BD16B6A83B142482C62E861F4
:103310006E6A12F0A1FA12F08FF8041E10DA3C481F
:1033200015F0CEFA204602B0BDE8F08100F0BEF8FC
:10333000FFF7C4FF6B6A002BE7D14FF0FF34EEE7D5
:1033400000F01CFB041EEADB7378012B5AD1F379E1
:10335000002B57D00026684685F8C830ADF80230FB
:103360008DF804608DF8006012F0AAF8041ED6DB18
:10337000802768468DF8007012F0A2F8041ECEDB9C
:103380002549304612F054FA041EC8DB224938465B
:1033900012F04EFA041EC2DB204CDFF88480444554
:1033A0001AD3002012F014F9041EB8DBD5F8C4308B
:1033B000802043F00103C5F8C43012F009F9041E5F
:1033C000ADDBD5F8C43043F48033C5F8C4300123F5
:1033D00085F8B8300024A2E7276A0026227FF3B2DE
:1033E0009A4201D82434DAE707EBC30257F83310C6
:1033F000107912F01DFA01360028EFD09DE76FF02A
:1034000077048CE76FF0150489E700BF28100020CF
:10341000C0050020652D0000E13100000C080020EF
:103420003008002030B51F4B8BB005AA03F1100502
:1034300018685968144603C40833AB422246F7D1D2
:103440001B7823701022002101A81AF09EFA122284
:10345000002115481AF099FA102101A819F027FB4C
:1034600000281BDD0828B8BF0820093801AB0E4929
:103470001A18002012F8013F0AAC04EB131403F0F1
:103480000F0328336B44013014F8144C13F8143C28
:103490000C7008284B7001F10201EBD102480BB00F
:1034A00030BD00BF80F30100533200202DE9F04F02
:1034B000724B93F800B087B0BBF1000F03D0704897
:1034C00007B0BDE8F08F6E4C00264FF0011AB046F1
:1034D0003546B14623783BB96A4B02349C42F3D15E
:1034E000664A01231370EAE76378052B1BD8DFE8EF
:1034F00003F08E03C38E1D39402304A88DF810B04D
:10350000ADF812308DF814B019F09AF940B10823D3
:1035100004A8ADF8123019F093F908B1ADF812B063
:10352000BDF81230E37123781C44D3E7E378002B15
:10353000F9D1A3786BB108F101085FFA88F8F2E7D6
:103540006B689C4207D024354F4B9D42F8D3002036
:10355000B6E74E4DF8E7AB68002BECD0414620466D
:103560009847E8E7002DF2D000222B7F9A42EED256
:10357000296AA07801EBC2010B79984201D001328F
:10358000F3E70127E07800F003008DF814002079BC
:1035900094F805C040EA0C20ADF8120094F902003E
:1035A0000028FBB228DA07F110004FF0010C0CFAEA
:1035B00000F010EA0A0F26D143F080008DF81000C9
:1035C00004A8CDE90213019219F03AF9DDE90121CD
:1035D000039BC0B99DF81020A27012F0800F18BF95
:1035E00010330A7118BFDBB24FF0010214BF9A40CA
:1035F000BA404AEA020A96E70120B84010EA0A0FE8
:1036000001D11846DAE70137102FBBD1B7E7032EF7
:103610001AD1FFF707FF074650B1FDF793FD0246A9
:1036200030B11028A8BF10223946A01C1AF085F925
:1036300023786FF00201E218091B04EB5303D14217
:1036400013D50136F6B26EE7002EF1D1B9F1000FB5
:103650003FF47DAFA4EB090389F80230C3F30723DD
:1036600089F8033089F80480EBE702F801BC13F80D
:10367000010902F8020DE2E7A14654E752320020A8
:10368000680700200B080020300800200C080020EC
:1036900010B5094B00211A461C78844205D15C689C
:1036A0001CB1482303FB012010BD0131042903F1A3
:1036B0004803F1D10020F7E7F41000202DE9F34191
:1036C00050F8303C10F8346C103304460AD10369CA
:1036D00050F8282C980736D5D2B9590715D50023AC
:1036E00044F8303C54F8303C10330BD054E90975A1
:1036F00054F81C8C19F0D9FE00284FD02E482146D2
:1037000019F083FE02B0BDE8F08143F004032361A9
:1037100054F82C1C01AB304617F002F810B16FF0D2
:103720001503DDE7019A54F82C3C134444F82C3C73
:1037300054F8283C9B1A44F8283C54F8243C134481
:1037400044F8243CCEE754F82C1C01AB304611F071
:10375000E5FF0028E3D1019D54F82C3C2B4444F8AC
:103760002C3C54F8283C5B1B44F8283C54F8243C7F
:103770002B4444F8243C002DB1D0304612F072F8AE
:10378000B5FBF0F303FB1055002DA8D154F8283CED
:10379000002BA4D0304612F009F8A3E744F8200C1F
:1037A000A4F1180015F00EF9002DABD042463946B1
:1037B0003046A847A6E700BF300800204B1E012B6B
:1037C00073B506460D460FD8FFF762FF044668B989
:1037D000012D09D101AB01220DF10301304611F099
:1037E0009DFF019B002BF5D102B070BD19F05DFE6D
:1037F00004F1340108B1012D05D1084602B0BDE83D
:103800007040FFF75BBF034802B0BDE8704019F09D
:10381000FCBD00BF300800202DE9F74F8046009125
:103820001746994616F0C7FF044600285CD1EFF30F
:10383000118B202383F31288BFF36F8F2C49002252
:1038400008460023019115F0F7F8019968B9DFF8EF
:10385000A4A0482262430AEB02056E6816F1100F1D
:1038600012D1084615F0AEF806E00134042C01F13F
:103870004801E4D16FF00B068BF31188BFF36F8F13
:10388000304603B0BDE8F08F0AF802800C9A009B26
:103890006A610D9A2861AA6140466FF00F02C5E97E
:1038A0000237C5F844906A6011F0DCFF58B1404619
:1038B00011F0D8FFB7FBF0F202FB10771FB16A6C72
:1038C00042F004026A6419F0020F08D0482202FB99
:1038D00004A10948343119F098FD0026CCE7404690
:1038E00011F064FF0646C7E76FF00F06C8E700BF98
:1038F00010110020F41000203008002010B5EFF364
:103900001184202383F31288BFF36F8FFFF7C0FE6B
:1039100050B14368103307D16FF08B03436000F15F
:103920003401044819F071FD84F31188BFF36F8FDF
:1039300010BD00BF30080020F8B50E4C042520272C
:10394000EFF3118687F31288BFF36F8F636810332C
:1039500007D16FF08B030848636004F1340119F05C
:1039600054FD86F31188BFF36F8F013D04F14804C5
:10397000E6D1F8BDF41000203008002070B50A4CE4
:103980000A4E00253146204619F023FD0122A4F1FC
:1039900018001146013519F099FC042D04F1480472
:1039A000F0D1002070BD00BF28110020BD360000FE
:1039B0000169012381F84B300B6833B191F849302C
:1039C0001BB10248083119F020BD704730080020B3
:1039D0000169012381F84A300B6833B191F848300E
:1039E0001BB10248083119F010BD704730080020A3
:1039F00070B50569EFF31186202383F31288BFF3B6
:103A00006F8FD5F8900016F03AFE044686F31188C1
:103A1000BFF36F8F30B104480022002305F1180175
:103A200015F00AFA204670BD3008002070B5012359
:103A300082F8483013680D4614463BB192F84A307C
:103A400023B10E4802F1080119F0DFFCD4F89030E0
:103A50005A89DB889A4205D17DB904F1180140F6F4
:103A6000CD4204E004F11801002DF8D00022BDE899
:103A700070400248002315F0DFB970BD3008002007
:103A800070B504460E4601791548154616F06FFECE
:103A900010B394F900206378002A16DB202B04D0A1
:103AA000222B0ED06FF085000AE02B681A6840F8D0
:103AB000102C9A8820F80C2C9B7900F80A3C0020E6
:103AC00070BD638800F8093CF9E7212BEAD1103872
:103AD000072328603360F2E76FF01200F0E700BFC1
:103AE0001412002008B50146034816F04EFE10B12E
:103AF000012300F8073C08BD141200200D4A0346BC
:103B00000021A0F848101068C3F8940090889279BA
:103B1000A3F8980083F89A2083F89C1083F89B10F0
:103B2000A3F89E1083F8A010402203F14C0019F076
:103B30002CBF00BF44DE010010B504690023C4F8A7
:103B4000A8300C4BC4F8A400596804F1A80269B964
:103B5000C3E9002204F10800074919F03AFC04F116
:103B60001800064919F082FC002010BD0A605A6056
:103B7000F0E700BF14120020E1A70100F13B0000B4
:103B800073B504698DF80710002384F848302025A8
:103B9000EFF3118685F31288BFF36F8F0122D4F8FB
:103BA00090000DF1070116F06AFD86F31188BFF34E
:103BB0006F8F01280AD019F078FC10B994F8A13061
:103BC0006BB9094B1A780AB901221A702122002315
:103BD00004F11801054815F02FF902B070BD00215D
:103BE000212019F002FDD3E76532002030080020C3
:103BF000F0B5D0F88C305B681B6A1F7D85B0054638
:103C0000384616F0D8FD064650BB95F886303BB3D3
:103C1000A86F0146C38831F80A2F9B1A9BB2B3F5EF
:103C2000806F28BF4FF4806303AA16F0D9FC0446C6
:103C3000B0B18306A5F1180308BF00F1FF3485F881
:103C400030600193074B03990093224602233846C4
:103C5000FFF7E2FDA86F224600F10A0116F0F6FC1C
:103C600005B0F0BD2D3A000037B514460A1E0546D2
:103C700021DDD4F88C0004F14C0116F000FD012385
:103C800084F8493023683BB194F84B3023B1114894
:103C900004F1080119F0B9FBD4F88C2093889189BC
:103CA00012695B1A9BB2D31A3F2B04D8012384F804
:103CB000A03003B030BD94F89E30002BF9D0064BF5
:103CC000009301940123402204F14C012846FFF7A0
:103CD000A3FDEEE730080020693C0000F7B50D4673
:103CE00001461D4816F037FD044610B30646691E0E
:103CF00056F8A4395F6805291BD8DFE801F01C1AC3
:103D0000031C222610F8061C99B9012300F8063C72
:103D10003B6A3246187BFFF7A7FF14F85C2C42B9C8
:103D20003B6A187D0D4B0093019602231146FFF765
:103D300073FD03B0F0BD304603B0BDE8F040FFF7BF
:103D4000DDBE012304F8053CF3E710F8053C002B29
:103D5000EFD00023F6E700BF141200202D3A000038
:103D600037B5094D0949002400944FF0FF334FF453
:103D70008062284615F022F80549284619F09BFB79
:103D8000204603B030BD00BF30080020C032002004
:103D9000A4F3010030BFFFF7FDBF00BF2DE9F041E4
:103DA0000B4EDFF8308006EB0807CC1B0546324689
:103DB0000949204619F0C1FDA01942460021083CDE
:103DC00019F0E3FD6C6707F10800BDE8F08100BF62
:103DD000000000000400000010DE0100054B5A69DD
:103DE0009B689A421FBF044A536843F08053536054
:103DF000704700BF0032002000ED00E070B5264B98
:103E000015469A6A12F0100F9A6A14BF11241024F2
:103E100012F0080F9A6A18BF1224920706460AD5B4
:103E2000586B9A6A140634D519B19A6A22F0800246
:103E30009A62132401E06FF01500174B9A6A12F092
:103E4000010F9A6A18BF142412F0200F9A6A18BF43
:103E50001524D20602D49B6A9B070AD50E4B5B68D9
:103E6000190506D5314600F01FFA10B180F3098814
:103E70000224094B9A6A920642BF5A6A22F40052FF
:103E80005A629A6A42F0FF029A6200232B7020461F
:103E900070BD6FF01500CCE700ED00E0134B9A6A9F
:103EA00012F0007F9A6A14BF1E201D2012F0807F3E
:103EB0009A6A18BF1F2012F4002F9A6A18BF212097
:103EC00012F4802F9A6A18BF222012F4003F9A6AD7
:103ED00018BF232012F4803F9A6A6FEA02426FEA09
:103EE00012429A6218BF2420704700BF00ED00E024
:103EF00010B5194B0246986A9C6A10F4805F14BF93
:103F00001720162014F4006F9C6A18BF1820A4050F
:103F100009D5986B986A000404D51AB19A6A22F4FC
:103F200000429A6219200C4B9A6A12F4806F9A6AC6
:103F300018BF1A20D2050CD49B6A13F4005F18BF77
:103F40001C20054A936A43F47F43936200230B705D
:103F500010BD1B20F5E700BF00ED00E0F0B5484BB9
:103F60005B688BB00446C3F30803002585F3118812
:103F7000BFF36F8F02F07F40B0F17F4F11D102F09D
:103F80000C0008280DD010074CBF0C46012500225C
:103F9000033B8DF80720032B05D8DFE803F02463EB
:103FA00067602C46F3E700239DF80720CAB902AEEC
:103FB00004F1200720686168324603C20834BC421D
:103FC0001646F7D1099A002D54D0C2F3080121B941
:103FD0006FEA52226FEA4222099202A9184616F0AD
:103FE0007CFC0BB0F0BD264BDA6A9107DBD4DA6AB1
:103FF000002AD8DBDA6A5200D5D55A69A16942F4A1
:1040000080725A61BFF34F8FBFF36F8F5A6931F8D7
:10401000021C22F480725A61BFF34F8FBFF36F8F7F
:104020004DF6027291420AD09A6AD2B24AB10DF1AB
:10403000070201212046FFF7E1FE0346B4E72368AB
:10404000B2E79A6A12F47F4F05D00DF10701012003
:10405000FFF74EFFF1E79B6AB3F5803FA3D3FFF76D
:104060001DFFEAE70DF107020021E3E70DF107016B
:104070000020EDE722F4FF7222F00102ACE700BF5E
:1040800000ED00E0044B5A6942F010025A615A698F
:1040900022F008025A61704700ED00E0EFF308805B
:1040A000EFF3098101B57246FFF758FF01BD00BF6C
:1040B0000B4880F3088813F01BFB202080F3118845
:1040C00008484FF40461401880F30988EFF3148026
:1040D0000221084380F31488BFF36F8F00F0A4F827
:1040E000C053002000460020084B9B6883420BD140
:1040F000EFF3058343B1064B5A6842F080525A6091
:104100005A6A22F400425A6215F008BA00320020BE
:1041100000ED00E014498A684FF030001044EFF3DE
:10412000098C80E8F01F202080F31288BFF36F8F86
:104130000E4F4FF000664A698A603E60506F0C4C2B
:104140002060906F0023936780F3118804B51046B8
:1041500000F00EF9BDE8044002F1300090E8F01FD5
:104160008CF30988704700000032002004ED00E065
:104170001C1200201EF0040F0CBFEFF30880EFF3B9
:104180000980816911F8021C0229FFD001B572462D
:1041900016F0A9FB01BD00BF40B2002807DB044AAE
:1041A0004109012300F01F00834042F8213070478D
:1041B00000E100E040B200280CDB4309064900F0B2
:1041C0001F0020330122824041F82320BFF34F8F8C
:1041D000BFF36F8F704700BF00E100E0054B42095D
:1041E00000F01F0053F82220012303FA00F01040D2
:1041F000704700BF00E100E040B20028A8BF00F116
:10420000604001F10101B8BF064B4FEA4111ACBF5C
:1042100000F5614000F00F00C9B2B4BF195480F836
:104220000013704714ED00E00F4A08B50F4B22F061
:104230007F029A60BFF34F8FBFF36F8FD3F8882050
:1042400022F47002C3F88820EFF3148323F00403F0
:1042500083F31488BFF36F8F14F0BCF915F092FA52
:1042600000F05CF814F0FAF90010000000ED00E036
:1042700042F8203C009B42F81C3C0A49019B42F852
:10428000183C029B42F8143C21F001014FF080736E
:1042900042F8043C42F8081C0023203A0265836778
:1042A000704700BF8D290000094A0346906870B12D
:1042B00013F1160F406E05D0A0F140029A4205D8C6
:1042C000834203D2814228BF0020704700207047FC
:1042D0000032002008B51546094A0A4B9060426F2B
:1042E0001A600E4600F044F82C4686F30988002038
:1042F000054B98472046002100220023034C20470D
:10430000003200201C12002005A901008D290000A8
:10431000014B10221A61704700ED00E004480023B1
:104320002021C2180133302B82F80013F9D17047D5
:1043300000E100E008B5EFF30583064A103B02EB0D
:10434000C30152F8330049688847BDE80840FFF7C9
:1043500045BD00BF60DB0100024B034A0348012159
:1043600000F076B8000004200000002058DE0100B4
:10437000426E054B403A1A60044A4021C3E90112DB
:104380001846012100F06EB82012002000000B1525
:10439000084AC2F898000B6823F01F03034343F058
:1043A0001003C2F89C308B6843F00103C2F8A030C0
:1043B000704700BF00ED00E02DE9F043DFF86080BA
:1043C00085B00E461F4604464FF00009B14523DA7A
:1043D0006068D8B13FB1411E08421BD11F2819D9CE
:1043E0002368194216D12368019316F0AEFAA36828
:1043F00003430393D8F89050C5F30725D0B2013D8D
:10440000A84207D801A9FFF7C3FF421C09F101091F
:104410000C34DBE76FF01502104605B0BDE8F08301
:1044200000ED00E0044B0522C3F89420BFF34F8F4A
:10443000BFF36F8F704700BF00ED00E0BFF35F8FE9
:10444000024B0022C3F89420704700BF00ED00E04B
:1044500010B5034C01232278FFF7AEFF207010BD8A
:104460006632002008B50B4A00231278FFF7A4FF3C
:1044700010F1160F07D0084A0021D2F89030C3F38C
:104480000723984200DB08BDC2F89800C2F8A010CC
:104490000130F2E76632002000ED00E02DE9F04344
:1044A000534B544CD3F890302568C3F307239D42F7
:1044B00085B000F29A80FFF7C1FF00200C268542EC
:1044C0001AD14D4C4D4F25706846FEF787FBDFF83B
:1044D0002081DFF82C9106460025AE4213D12378C7
:1044E00043490020D1F89020C2F30722934276DBA3
:1044F000FFF798FF002042E0616806FB0011FFF71C
:1045000047FF0130DBE7009800EB05114FEA051C7F
:10451000CB683B40B3F5000F48D00AD8B3F5001F75
:1045200030D0B3F5800F36D0B3F5801F10D00135F1
:10453000D3E7B3F1807F42D0B3F1007FF7D150F8D9
:104540000C3088684A6816F000FA40F4802009E0D0
:1045500050F80C3088684A6816F0F7F940F0885037
:1045600040F43020CDE901230390D8F89030207832
:10457000C3F30723013B98422AD96FF0150005B019
:10458000BDE8F08350F80C3088684A6816F0DDF911
:1045900040EA0900E6E750F80C3088684A6816F0EF
:1045A000D4F940F0E06040F40030DBE750F80C3024
:1045B00088684A6816F0C9F940F08270D2E750F86E
:1045C0000C3088684A6816F0C0F940F08870C9E776
:1045D00001A9FFF7DDFE237801332370A7E7C1F8B7
:1045E0009830C1F8A00001337CE74FF0FF30C6E7F8
:1045F00000ED00E064DE0100663200200000F0FF04
:104600000000081108B5024B1B689847002008BD40
:104610002C120020034B044A1860937843F00203E5
:10462000937070472C1200207402002008B50649D0
:10463000064821F00701C1F1005202F5802215F071
:1046400036FE002008BD00BF4F6D00203012002054
:1046500070B54169867A0B4D044659B1437ADB0740
:1046600006D42C2303FB06535B6A1B689B689847A0
:10467000002363612C20214606FB0050BDE87040FA
:1046800018F016BE34060020024B2C2202FB00302C
:10469000704700BF34060020827A064B2C2101FBB4
:1046A00002339A6A1B7F1B33801A23F00303B0FB8B
:1046B000F3F070473406002038B5074B827A2C247B
:1046C00004FB02335B6AD3E901240C601568FFF731
:1046D000E3FF04FB005038BD340600202DE9F04311
:1046E00085B005466846039190461C4619F004F8CB
:1046F000DDE90067EFF31189202383F31288BFF30C
:104700006F8F6B8B002B41D02A8B9A4225D90022C8
:104710000023284614F024F90446F0B189F31188E7
:10472000BFF36F8F039B002B41D032463B46684658
:1047300019F006F8A27A264B2C2101FB0233204601
:104740005B6A1B6803A91D68DDE90023A847606157
:1047500070BB2046FFF77CFF24E0698B4B1E6B8308
:1047600089F31188BFF36F8F2B7F2A8BAC6A1B33C1
:1047700023F00303521A02FB0344154B154AEB1AAC
:104780009B105343A3722B7FE372CBE789F311880D
:10479000BFF36F8F23464246284614F0E1F80446E3
:1047A0000028BFD10024204605B0BDE8F083636136
:1047B000012300252381039B6382E27A65602946F9
:1047C00004F1180019F0E1F863692582E360EAE773
:1047D00034060020A38B2EBA70B50C4C2C2500B9E2
:1047E00070BD037A4668013BDBB20372002BF7D140
:1047F000C3604360837A05FB03431B6A13B1984788
:104800003046ECE7FFF724FFFAE700BF340600204C
:104810000E4A0123C2F840354FF080424FF08051DC
:10482000C2F87835D1F83001082808D1D1F8341110
:10483000052904D80648415C09B1C2F838364FF062
:1048400080430122C3F880250020704700E001402A
:10485000BCF3010020B1034B800143F00103184772
:10486000704700BF50DE01004FF08043D3F8403660
:10487000DB072ED54FF01023D3F8043303F00703E2
:10488000072B26D1144A0123C2F80435D2F800348C
:10489000002BFBD04FF01021D1F8043323F0070395
:1048A00043F00403C1F804330023C2F804350A4A74
:1048B000D2F80034002BFBD0BFF34F8F0749084BD1
:1048C000CA6802F4E0621343CB60BFF34F8F00BFAE
:1048D000FDE70020704700BF00E0014000ED00E070
:1048E0000400FA0508B5044818F00CFB00280CBFBA
:1048F0006FF01200002008BDE0DA01000378012B00
:1049000030B513D0022B27D07BB9194B0A4603F1DF
:10491000100453F8045B42F8045BA342F9D11B78FE
:10492000137043884B731B0A8B7330BD104B0A46C0
:1049300003F1100453F8045B42F8045BA342F9D17D
:104940001B78137043684B73C3F307221B0CCB73A4
:104950001B0A8A730B74E8E700F1100350F8042B6C
:1049600041F8042B9842F9D103780B70DDE700BFC2
:10497000DCF3010008B516F01DF914F0B3FC044B8C
:104980001B680BB10A209847BDE8084014F0BEBC74
:104990003C12002038B50546054815F0F1FF0446E5
:1049A00020B101210C3016F04CF82576204638BD98
:1049B000100700200F2810B50ED80D280ED90B486F
:1049C00015F0DEFF044628B101210C3016F039F84D
:1049D00002232376204610BD1328F0D009B10448E5
:1049E000EEE7BDE810400220FFF7D4BF3C070020EF
:1049F0008C06002070B5C6683378B6F8014083B9DC
:104A00000F21204601F0F4FDF378054650B90A4A1B
:104A1000118831B96FEA04506FEA10501080074ACC
:104A2000137070BD4372012101F058FD2846BDE8A6
:104A3000704001F029BD00BF3832002067320020ED
:104A400010B5084C0146062294F86F0001F0F0FF03
:104A500038B994F86F000449BDE81040052201F010
:104A6000E7BF10BDB0000020C2F3010010B5012166
:104A700004460C3016F017F82146034A0078BDE8CA
:104A80001040002316F057B938DF010010B501219E
:104A900004460C3016F007F82146034A0078BDE8BA
:104AA0001040062316F047B908DF010070B52F4803
:104AB00015F07FFF0446002857D0017E022932D02E
:104AC000082902D1038A032B02D8FFF785FE20E0D4
:104AD00004210C3015F0E7FFFF2243880688627638
:104AE000228AC6F30B009A42A08301D02046ECE74D
:104AF0000F2101F07DFD05460028F7D001F0ACFD47
:104B0000320B60762146284616F0F6FC284601F066
:104B1000BBFC174BD3F84C313BB3BDE87040154993
:104B2000154818F072BC038A012BCED90C3015F051
:104B3000BAFF0546007816F09AF810F002060DD17B
:104B40000E4A0F490F4840F6DA3315F0FCFB86F3A6
:104B50001188BFF36F8F0323184602DF0A4A2878B3
:104B60000423214616F0E7F8C0E770BDFC010020E1
:104B7000B000002094020020D0080020EDF30100D6
:104B800021F401004FF40100E8DE01002DE9F047B7
:104B9000884616468246002879D0BFF35B8FDFF83F
:104BA000F490002359E8004F49E80032002AF9D177
:104BB000BFF35B8F002C6AD02046FFF76DFD364DAA
:104BC0000C2303FB005027464388534511D0BFF305
:104BD0005B8F59E8003F49E80072002AF9D1BFF322
:104BE0005B8F002B53D01F463846BDE8F047FFF7D8
:104BF000F3BDA6420FD0204615F0BDFE04F10C090E
:104C0000022301214846237615F01BFF328AF16802
:104C1000484615F027FF2046FFF73EFD0C2606FB11
:104C200000504368ABB1B8F1000F12D12046FFF736
:104C300033FD06FB005001214268D2E90003127ADD
:104C400003F01F06B1405B09DAB100EB830016F0F8
:104C500020F82046FFF720FD0C2606FB0050836855
:104C6000002BC1D02046FFF717FD704305F80080E8
:104C70002046FFF711FD06FB0055A86813F0A2FEC1
:104C8000B2E7C94300EB830016F06CF8E1E7BDE83A
:104C9000F08700BFF801002040120020094BBFF34D
:104CA0005B8F1A68BFF35B8F02F00902BFF35B8F63
:104CB00053E8001F43E800200028F9D1BFF35B8FC1
:104CC000704700BF8401002010B5C1E900239DF8A2
:104CD00008300B720C46FFF7DFFC034B0C2202FB83
:104CE00000335C6010BD00BF401200202DE9F0478A
:104CF0004FF0FF3206464FF0FF331848884615F054
:104D00003FFE044638B300F10C070121384615F088
:104D100098FE012323762046FFF7BEFC104D4FF08E
:104D20000C0909FB00504FF0000A46802046FFF7AF
:104D3000B3FC09FB0050C0F808A02046FFF7ACFC0C
:104D400009FB005503213846C5F804A015F084FE80
:104D5000068080F802802046BDE8F087E406002047
:104D600040120020034B0146D3F86C018268926820
:104D7000104700BFB00000202DE9F843044600F1C1
:104D80000C06304615F09FFEB4F81080B8F1010F04
:104D9000054604D82046BDE8F843FFF71DBD304660
:104DA000022115F080FE0746007815F060FF10F034
:104DB000010906460DD10F4A0F49104840F6FA7313
:104DC00015F0C1FA89F31188BFF36F8F03231846DA
:104DD00002DF05230A4A3878214615F0ACFFB307F5
:104DE000D8D56369A4F8108013FA85F5E560BDE8AD
:104DF000F88300BFEDF301006CF401004FF40100F3
:104E0000C0DE010038B50C4614F06CFA237E022B8C
:104E10000AD0082B19D121460F4815F0B5FD0F49CE
:104E20000F4818F0F2FA0BE0E368187815F01FFF4E
:104E3000C207054602D52046FFF79EFFAB07EAD41E
:104E4000002414F063FA204638BD2046FFF7C4FC66
:104E50006FF01504F5E700BFFC010020940200206C
:104E6000D00800200148042115F013BF8401002060
:104E70000048704749F30100014813F099BF00BF93
:104E80008402002038B505460C4619B9FFF72EFFFD
:104E90000446A8B140F635439D4209D12046FFF7AC
:104EA00061FF054650B12046FFF796FC284638BD05
:104EB0000548214618F0F1F9FFF7DEFF0025F5E778
:104EC0006FF06805F2E700BF0402002038B5024623
:104ED0000B46244DD5F8541109B9002038BD05F50D
:104EE000987013F0A9FD0028F7D10022002305F5E2
:104EF000AA7013F035FD044668B91B4A1B491C48CB
:104F000040F6E93315F01FFA84F31188BFF36F8F71
:104F10000323184602DFD5F8480120B1FFF75CFCF7
:104F20000023C5F84831204615F059FDC5F8480161
:104F30002046FFF717FF98B10E4813F043FD2046B7
:104F4000FFF7AAFB0C4B0C2202FB00301F2140880C
:104F50002246FFF71BFE2046FFF73EFCFFF78CFFC3
:104F60000120BBE7B0000020EDF3010085F4010053
:104F70004FF40100E0010020401200202DE9F04F25
:104F8000064687B015460C4631B9FFF7AFFE04461A
:104F900048B96FF068007BE0887AFFF775FB484BF3
:104FA000834240F0868001220021684618F08EF985
:104FB0002046FFF771FBDFF80C910C2303FB0090F8
:104FC000C0F808D0204615F00AFD01463E4818F00A
:104FD00064F9FFF751FF18F0E9FC3C4B1A583C4BC1
:104FE0009A4222D1DFF8ECA0DFF8ECB0364818F096
:104FF00069F9002180464FF4A020FFF767FF0746BC
:1050000088B940F2B11352465946344815F09BF91D
:105010003348314615F097F987F31188BFF36F8F46
:105020000323184602DF4445E0D14FF4A0220023B9
:10503000684613F001FD074698B140F2B713254AC0
:105040002849264815F07FF927483A46314615F099
:105050007AF9002383F31188BFF36F8F0323184677
:1050600002DF2046FFF718FB0C23584319F80060B5
:10507000BEB12046093EFFF7AFFB092E0ED8DFE890
:1050800006F01B0D0D0A050D0D0D0D186FF00B0030
:1050900007B0BDE8F08F6FF00C00F9E76FF0040087
:1050A000F6E715B12C600020F2E72046FFF794FBED
:1050B000F9E76FF01500EBE76FF06E00E8E700BF6F
:1050C000E406002040120020040200200800000036
:1050D000E80E0020EDF3010089F401004FF4010017
:1050E00091F40100B1F40100BAF40100F7B5002217
:1050F000114640F60340FFF741FF0446002853D114
:10510000FFF7CCFD214601AA41F20300FFF736FF6D
:105110000446002848D1019AB24DD168D1F8010067
:10512000D1F8051005F1780303C31046FFF754FBCF
:10513000214601AA41F20100FFF720FF044698BB77
:105140000198C3685A7885F870205A88A5F87220AB
:105150001A7985F87120B3F80720A5F87420B3F800
:105160000530A5F87630FFF737FB214601AA41F25A
:105170000200FFF703FF0446B0B9019FFA6805F18A
:105180008006531C413218685968344603C40833FA
:1051900093422646F7D13846FFF71EFB95F87C3040
:1051A000580604D46FF01204204603B0F0BD01AAE3
:1051B000002142F20300FFF7E1FE04460028F3D18C
:1051C000019B894EDA68D2F80100D2F8051003C6B7
:1051D0001846FFF701FB214601AA42F20200FFF741
:1051E000CDFE04460028DFD1019CE368B3F801201E
:1051F00091B249B1D97839B1A5F80421DA781146CC
:1052000006F1280018F062F82046FFF7E5FA95F855
:105210007C601F2316F02006A5F8203117D102214B
:1052200040F66D40FFF762FD044600287BD0022166
:105230000C3015F011FC01230370467021463246F4
:1052400040F66D40FFF79AFE04460028ACD195F871
:105250009C30190712D501AA002142F21C00FFF769
:105260008DFE044600289FD10198C368D3F8012021
:10527000D3F80530C5E93823FFF7AEFA082142F22A
:105280000100FFF733FD044600284CD008210C3004
:1052900015F0E2FB95F8D83095F8D92013F0020FFD
:1052A00014BF2F230F2312F0090F18BF43F400631C
:1052B000002203701B0A43708270C2700271427137
:1052C0008271C271214642F20100FFF757FE044687
:1052D00000287FF469AF95F87C30B5F804119A0680
:1052E00024D4C9B901AA41F20500FFF747FE0446DC
:1052F00000287FF459AFB5F80431019C4BB9E3683D
:10530000B3F80120A5F804219A883848114617F00F
:10531000DDFF2046FFF760FA082140F60140FFF765
:10532000E5FC044638B96FF068043DE70029F3D185
:105330006FF0040438E708210C3015F08DFB1023C2
:1053400003708823437002230022C37020238270DD
:10535000027142718271C371214640F60140FFF72C
:105360000DFE044600287FF41FAF014601AA4FF648
:105370000140FFF703FE044620BB0198FFF72CFA1B
:10538000214601AA4FF60240FFF7F8FD0446C8B9CE
:105390000198C368B3F80130A5F8C130FFF71CFAD3
:1053A00095F8C1305B070DD501AA21464FF60340A1
:1053B000FFF7E4FD30B90198C3685B7885F8C03029
:1053C000FFF70AFA00F0C6FB044600287FF4ECAEB3
:1053D00001F002FC044600287FF4E6AEFFF742FD30
:1053E000E2E600BFB000002088010020B8010020E4
:1053F00010B5FFF77BFE034B1B6813B1BDE81040EF
:10540000184710BD5812002073B5254D0646D5F833
:105410006C0117F077FD00283BD06FF0020105F119
:10542000D40015F09FFC012115F033FC10EA0104B3
:1054300032D11C4B1E600A4605F5987017F046FFE6
:1054400005F5AA7017F0EBFE174818F009F8174990
:10545000154800946FF007034FF4966213F0AEFC0A
:105460001349114818F027F8D5F86C0111498368E1
:105470001B689847044648B926B902B0BDE8704099
:10548000FFF734BE05F1C40013F092FC204602B0D1
:1054900070BD6FF01204F9E76FF07704F6E700BF14
:1054A000B000002058120020D00800200037002053
:1054B000FFF40100054E0000F7B5144B93F99B3043
:1054C000002B05460C461DDA14B9204603B0F0BD8A
:1054D000082C01AA4FF0000142F21800264628BF0E
:1054E0000826FFF74BFD0028F0D1019FF9683246EE
:1054F0000131284618F021FA3846FFF76DF9354496
:10550000A41BE1E76FF08500E0E700BFB0000020DA
:105510002DE9F0435A4BB0F80180198848F47042E5
:1055200091424FF0000602BF1E80564B1E78C37892
:10553000012B08BF544B00F1040485B005462046FA
:105540000CBF93F86F70002715F030FB2146B0B107
:1055500002A815F020FBD5F81130CDF80130B5F8D0
:105560001530ADF805304FF00109EB78012B1DD057
:105570001321404615F058FD05B0BDE8F0833846CC
:1055800015F0F3FD0346006802909A889B796868DD
:10559000ADF80C208DF80E30A288A37995F8049010
:1055A0000090ADF804208DF80630DEE702A8FFF782
:1055B00047FAEB78012B04460AD100F061FB6FF04B
:1055C00080010746103015F0CDFB384615F03BFF43
:1055D000002CCDD02346B5F8012023F8702B02987B
:1055E0009DF80E20BDF80C1020679A719980B5F8CF
:1055F0001730A4F88630B5F81930A4F88C30B5F817
:105600001B30A4F88E30EB78E3700022012B62721D
:1056100024D18DF80090BDF804209DF80630009844
:10562000A4F87B2084F87D30C4F8770000F028FBD4
:10563000237A154AC3EBC3039918D358C4F87E30B4
:105640008B88A4F882308B7984F88430D2E93813BF
:1056500003F03F03194301D000F0B6FC07212046B8
:1056600000F03CFF26B166720121204600F036FFB3
:10567000204601F021F8204600F006FF7CE700BF3D
:105680003832002067320020B000002000B5C36827
:105690001A7889B032B13C2A32D109B05DF804EBF6
:1056A00015F06CBB8DF80020B3F80120ADF8012097
:1056B000DA788DF80320B3F80B20ADF81720B3F893
:1056C0000D20ADF81920B3F80F20ADF81B205A7C3F
:1056D0008DF81D20586801901A899B7A8DF80A3040
:1056E000094BADF8082068461A689B88CDF80B2056
:1056F000ADF80F30CDF81120ADF81530FFF708FFE9
:1057000009B05DF804FB00BFD6F3010038B50321F2
:1057100004460C3015F0C7F9E3680578B0F80100CD
:10572000197840F6354398420AD02246FFF72EFA00
:1057300035B1044813F046F9BDE83840FFF79CBB8B
:1057400038BD00BFE001002038B5042104460C300C
:1057500015F0A9F94578017840882246FFF716FA36
:1057600035B1044813F02EF9BDE83840FFF784BB8B
:1057700038BD00BFE001002070B54FF0FF320D468C
:105780004FF0FF3300210646FFF714F9044660B9D5
:105790000A4A0B490B48132314F0D5FD84F31188F2
:1057A000BFF36F8F0323184602DF022104F10C00C0
:1057B00015F052F906704570204670BD08F50100DD
:1057C00085F401004FF40100F8B50A4DEF79064663
:1057D0000024E3B29F4202D86FF0010007E029469F
:1057E000304615F0BAFC0735631C08B12046F8BDF9
:1057F0001C46EEE7B000002070B5144E062231467C
:10580000044618F027F8D8B1062142F20500FFF748
:105810006DFA0546B0B1062221460C3015F022F98A
:105820000022294642F20500FFF7A8FB48B933469B
:10583000226843F86929A288B280012283F868208F
:10584000002070BD6FF06800FBE700BF1901002069
:1058500037B504460D4689B11849284615F07DFC38
:1058600060B9174A2968C4EBC404A3181151AA8867
:105870009A80AA799A71002003B030BD684615F06D
:105880007CF90028F8D16846FFF79EFF0028F5DA7A
:105890000B4A00989DF80610C4EBC404A3181051DD
:1058A000BDF8040098809971002DE4D012592A6047
:1058B0009A88AA809B79AB71DDE700BFC9F301002C
:1058C000B000002070B5044611B16FF0150070BD36
:1058D00080B11C4915F041FC60B92046FFF774FF08
:1058E000002829DA2378012BEFD1A37903F0C00334
:1058F000C02BEAD1144DEB79012B20D0BFF35B8F85
:10590000D5F8D430BFF35B8FDB0707D4002CDCD095
:105910000C49204615F021FC0028D6D1EE7921460D
:10592000731C3046EB71FFF793FF08B93046CEE7A2
:10593000EB79013BEB71CAE76FF07700C7E76FF0D7
:105940000B00C4E7C9F30100B00000202DE9F341CA
:105950000446D8B101AA002141F20900FFF70EFB6D
:10596000054698B9019E1249D6F80C8008F1010746
:105970000622384617F06EFF28B10E490622384637
:1059800017F068FF30B93046FEF726FF002002B05E
:10599000BDE8F081D8F80130C4F80130BB88A4F824
:1059A000053030462570FEF717FF0120EFE700BFF6
:1059B000D6F30100D0F3010007B56846FFF7C6FF34
:1059C000044BD87118B169460020FFF741FF03B0BE
:1059D0005DF804FBB0000020F0B5294DEE7989B0E8
:1059E000002E46D195F8C230DB0722D56A463146F3
:1059F0004FF60940FFF7C2FAD8B9DDF800C0DCF86D
:105A00000C406378012B1E4628BF012673B1A31CEE
:105A100002AA123418685968174603C70833A3420C
:105A20003A46F7D1186838609B88BB806046FEF71D
:105A3000D3FEEE71002416260127EB79E0B28342F3
:105A400002D8B3B1002012E008AB06FB0033694670
:105A500053F8182C33F8143CCDF80120ADF805307C
:105A60008DF80070FFF7F4FE01340028E5D009B08E
:105A7000F0BD0021084609B0BDE8F040FFF722BFA5
:105A8000B00000202DE9F0410D4617461C460646A1
:105A9000002856D0002B54D00A03037808D56D0790
:105AA0004FD415F06FFB002849D1012323700CE07F
:105AB000E9072CD526480FB1AA0608D4C3EBC302C8
:105AC000825C012A12D002B92270002037E090F8DF
:105AD000D820510638D5C3EBC302825C012A05D019
:105AE00002B92270237843F00203DFE74FF0010888
:105AF000072111FB03810144304615F03BFBF0B94F
:105B000084F80080002FE0D0AB06DED5EAE76A0714
:105B100011D50F49C3EBC3028E5C012E08D10722B9
:105B200012FB0363194415F025FB40B92670EBE71F
:105B3000002EE9D1FAE715F025FB01232370BDE81B
:105B4000F0816FF01500FAE76FF08500F7E700BF0E
:105B5000B000002010B50A4CE3790BB1002010BD55
:105B6000FFF72AFF0028FAD1E379002BF6D1FFF7DF
:105B700033FF0028F3D1601CBDE81040FFF73CBEA6
:105B8000B0000020F8B545686905064635D40469BB
:105B900014B115F0010330D0194F3078FB798342EE
:105BA0002BD9C0EBC00017490722384417F052FE2A
:105BB000A8B115F0010306D197F87020082A02D881
:105BC000B2689F2A19D915F0300F09D0ACB1EA0696
:105BD0000AD405F46035B5F5603018BF0120F8BD72
:105BE000EB0601D4002CF4D1D6E902239A4204D862
:105BF0001F2A02D9B3F5804FEBD90020EFE700BF91
:105C0000B0000020C9F3010008B50449072209309B
:105C100017F020FE003818BF012008BDC9F30100AD
:105C2000F8B5154B067883F86F6004460D46FFF70C
:105C3000EBFF70B91149304600F0B6FE044610B9CA
:105C40006FF00B00F8BD052100F048FC2C6000202F
:105C5000F8E704F109073946304615F029FD40B947
:105C60002078394600F0A0FE04460028E8D006213E
:105C7000EAE76FF01500E5E7B0000020C2F301008D
:105C800000487047C80000202DE9F04FD1F810906F
:105C90008DB09A460023B9EB03060546904805925D
:105CA00018BF0126079315F097FA0C46410740F1FB
:105CB0000C812046FFF766FF28B96FF0150B584698
:105CC0000DB0BDE8F08F204615F073FA804600282D
:105CD000F3D005F11007384615F07EFA0206C0F33E
:105CE000C01300F1F580CDE90933CDF82B30A3685E
:105CF0006068ADF82030E368ADF8223015F05DFA49
:105D00006FF480718DF82D00754815F06BFA754AA7
:105D100023782B7082F86F3061680DF125033246CD
:105D20002846FFF7AFFE83460028C8D105F10903D6
:105D3000B9F1000F18D021690868C5F809008888F2
:105D4000988089799971204615F048FB636806466A
:105D5000D8071BD49A0503D4169B0BB9022E56D133
:105D600002238DF8243023E05F4A1168C5F809103A
:105D70009188927999809A71204615F02FFB63687B
:105D8000D9070646E6D58DF8249011E013F0100FE0
:105D90000CBF012304238DF8243023691968CDF842
:105DA00026109988ADF82A109B798DF82C30D846AA
:105DB0000F2142F20600FEF799FF8346002800F00B
:105DC0008A800F2208A90C3014F04CFE002259469C
:105DD00042F20600FFF7D2F800287FD1B9F1000F98
:105DE0001BD06368DB0726D42846012115F006FB8B
:105DF000079D8346002860D0002D3FF460AF284601
:105E0000002100F06BFB284600F03EFB57E7032320
:105E1000DDF858808DF82430CAE7179B0093CDE950
:105E20000186169B05995246284615F060FA83466E
:105E30000028D6D043E707A92846FFF7F1FE83469E
:105E40000028D1D010F10C0F7FF439AFB9F1000F59
:105E50007FF435AF636898073FF531AF626882F031
:105E60000202C2F3400B0BF001020E21384615F07E
:105E700027FA731E5A425A410821384615F020FA73
:105E8000B11E4A424A413846092115F019FA6268A2
:105E90000A2102F00102384615F012FA42460B219F
:105EA000384615F00DFA62680D21C2F380023846BB
:105EB00015F006FA4FF0000B01E715B1284600F087
:105EC000E3FAB9F1000FCED1C8E76FF00A0BF6E69E
:105ED0006FF0770BF3E66FF0680BF0E68346EEE6C3
:105EE00084010020B0000020C9F3010073B51546FD
:105EF000069A0C46CDE900322B460A460146114867
:105F0000FFF7C2FE21460646002340F201109D42E3
:105F100002D1304602B070BD0A88824204D14A687C
:105F200012B11278D20702D401330831EFE70649E3
:105F3000064817F09BFA4FF470220023034812F032
:105F4000D9FFE6E7C80000204DB40100E0000020C2
:105F500010B5194815F077FA18486FF4804115F01C
:105F600041F9164815F038F903461A06C0F3C01077
:105F700021D5124815F030F9430513D50E48FFF727
:105F800043FE0F490346087E93B90E49052200F0EF
:105F90004FFD044630B10021417200F09FFA2046C7
:105FA00000F072FABDE810400348002115F026BA4F
:105FB00006222131EBE710BDC8000020D8000020E8
:105FC000B0000020C2F3010073B53248314C15F027
:105FD00003F910F4804F5AD0204615F0FDF803065F
:105FE00055D4204615F0F8F8460550D501A9A4F17E
:105FF0001000FFF715FE002849D1A4F11000FFF7AB
:1060000003FE0246204615F0E7F8C0F38031204633
:1060100015F0E2F881F0010145054FEA41011D4804
:1060200048BF41F0010115F0D7F8800448BF41F0A6
:10603000040119480DF10303FFF724FD054630BBA9
:106040001548012115F0DAF9019E28B9304602B051
:10605000BDE8704000F018BA2946304600F03EFA1C
:106060006FF480410B4815F0BDF80546304600F04E
:106070000BFA6B040BD5BFF35B8F54E8003F43F47E
:10608000804344E80032002AF7D1BFF35B8F02B0AF
:1060900070BD00BFD8000020C800002070B50C4BB8
:1060A0001C68054644B154F8143C143C13B1697A99
:1060B000284698476469F5E7064C074EB44200D37A
:1060C00070BD236813B1697A284698471834F5E7FC
:1060D00090120020E8DD010000DE010010B504464A
:1060E000FEF7DAFA044901EB0011204614F09FFD97
:1060F000BDE81040FEF7C0BE5C12002070B5D1E9CB
:10610000015600220446C1E90122064817F0C5F8ED
:106110003DB1314620462B466FF06D02BDE8704020
:10612000184770BD0406002070B5002205460E46D3
:10613000094800230021FEF7D1FA044658B1FEF7C2
:10614000ABFA064B324603EB001329462046BDE866
:10615000704014F047BD70BDB80600205C120020EE
:1061600013B5837A072B044625D1BFF35B8F043028
:1061700050E8003F43F4806240E800210029F7D155
:10618000BFF35B8F590516D415F072F9C2030CD515
:106190000A4B93F8D930DB070DD50021022300917B
:1061A0001A46204614F07FFF05E0204614F061FFF8
:1061B000A37A072BECD002B010BD00BFB0000020C6
:1061C00070B505460F480022002312F035FCB8B91F
:1061D0000D4B1C6834B154F80C3C143C03B1984787
:1061E0006469F7E7094C0A4EB44204D32846BDE877
:1061F000704012F0DDBDA36803B198471834F3E78F
:1062000070BD00BFEC05002090120020E8DD010009
:1062100000DE01002DE9F843DFF854800446202712
:106220000025EFF3118387F31288BFF36F8FE169C5
:1062300029B983F31188BFF36F8FBDE8F883206A13
:106240000A68E261814208BF226283F31188BFF3CA
:106250006F8FD1E901694046C1E9015517F01DF87A
:106260001EB1002249462046B047FEF705FED8E79A
:10627000040600200448B0F80431002B00F58470B7
:1062800008BF0020704700BFB000002030B50446B2
:1062900017F08CFB0D460C490C4A095891428BB003
:1062A00005D120460BB0BDE83040FFF7B3BF243422
:1062B0002146104617F0A9F81DB16946204617F08F
:1062C000B4F80BB030BD00BF08000000E80E00209D
:1062D00038B5002204468A4202D10024204638BD47
:1062E00004F1C8030120BFF35B8F53E8005F002D6A
:1062F00004D143E8000CBCF1000FF6D1BFF35B8F73
:1063000002D0D0340244E6E7002CE6D0C8220021B7
:10631000204617F03AFB04F14000044917F0A6F8B4
:10632000034904F1240017F054F8D7E7DD6A0000B0
:10633000ABB4010038B50122044600F1BC03BFF341
:106340005B8F53E8005F43E800210029F9D1BFF3D8
:106350005B8F7DB915F02FF912F0C4FF094BC4F81B
:10636000B850D3F8281104F1B80239B9C3E9492269
:1063700012F0CCFFBDE83840FEF77EBD0A60C3F8DE
:106380002821F5E7B000002070B53C4B5A8B32B1A4
:106390003B4DD5F8244134B90024204670BD1B681C
:1063A000002BF5D1F8E754F8B83903B1B83B3549BB
:1063B000002601E01C461346B5F80421002A5AD0F5
:1063C000D5F810214AB904F1B806002BE4D0D3F86F
:1063D000B820002AEED0B83AECE70A68002AF2D0DA
:1063E000D4F8A420002AEED0D4F8A820002AEAD0BD
:1063F000D4F8AC20002AE6D0A37A072B0DD1204692
:10640000904750B104F1C00015F032F8022804DCC6
:106410002046BDE8704015F0CEB8D4F8B83004F18D
:10642000B80206BBD5F82811C5F824318A4201D13B
:10643000C5F828310022C4F8B82004F1BC03BFF32A
:106440005B8F53E8001F43E800200028F9D1BFF319
:106450005B8F2046D4F8AC30984700289DD020466A
:10646000FFF768FF99E73360D5F828319A4208BFF3
:10647000C5F82861DEE79368FFDE00BFB80600209C
:10648000B00000200406002037B5C83010F8C65C04
:1064900010F8C54CBFF35B8F50E8003F5A1E40E830
:1064A00000210029F8D1BFF35B8F01A8019314F0FC
:1064B000DFFF01280BD1074812F084FA064812F0DA
:1064C00077FC012D03D1012C01D1FFF77DFD03B035
:1064D00030BD00BFEC050020B402002070B5857A05
:1064E0008D4204467ED0817225B98378082B01D075
:1064F00015F061F8A37A012B09D13B4D05F584769F
:10650000616900295CD1BDE87040FEF7B5BC072B7E
:1065100009D0002B66D1A378042B20D12046BDE8FA
:106520007040FFF7B1BFA378042B5BD02F48002148
:1065300013F05EFA0023C4E90D33E378012B51D147
:10654000A378012B04BF032384F8943004F14000A6
:106550004FF42032BDE87040002312F097BC082DA4
:1065600040D801A353F825F0E56500008D650000D3
:10657000B36500001D6500001D6500001D6500007D
:10658000B3650000E5650000E565000004F1400525
:10659000284616F077FF20460121FFF777FE2046B8
:1065A00014F0A1FF28460022BDE87040002312F03D
:1065B000A1BC637A002BB1D02046FFF76FFDADE799
:1065C000A2690B686361914208BFA3612046FFF78F
:1065D00095FDB5F80431002B14BF3046002012F0B1
:1065E000F1F98DE770BD00BFB0000020C4020020AB
:1065F00010B502460C460748012114F0F7FF034688
:1066000010B90023184610BD82781442FAD1FFF762
:106610003BFFF6E770090020F8B5074609480D462C
:10662000164614F0C8FF044650B183781F4203D1C8
:10663000BDE8F840FFF728BF3146A8472046F7E7F6
:10664000F8BD00BF70090020024900220120FFF7B9
:10665000E3BF00BF61610000034BC01A034B001190
:106660005843C0B2704700BF70090020C54EECC44B
:1066700070B51C46144305460E4608D017F096F92F
:106680000A4908580A49884204BF002213460949AA
:10669000002D14BF2846084614F072F9044618B1BC
:1066A000711D0C3014F0CDF9204670BD08000000BB
:1066B000E80E00203406002010B50446054812F00C
:1066C00077FB204600F0B8FA2046BDE81040FFF7FF
:1066D000E5BC00BFA40200202DE9F04F85B00023E7
:1066E00001930393FFF750FE044668B1827AD0F815
:1066F000A430072A17D002AA4FF0FF31984701466D
:1067000028B92046FFF7C0FE05B0BDE8F08F039B17
:10671000019A204614F0B2FED4F8A43002AA4FF039
:10672000FF312046EAE7DFF8689102AAB9F80411C0
:10673000984706460028E4D0B9F80421029B9A4203
:1067400006D30146D4F8A85003AB01AA2046A847B7
:10675000338A039FDDE9018B002B00F08E803046E9
:1067600014F07BFA8246002840F08780B9F80431A3
:106770004848002B08BF00200022002312F05CF9DB
:1067800000287AD144480022002312F0E9F8054697
:10679000002872D0C0E90187B9F80471338ABB457B
:1067A00098BF1FFA8BF7BB4242D9304614F017F955
:1067B0003946FFF7B9FCB9F8043194F8C4809B4519
:1067C0008CBF4FF0010A08F1020884F8C4A0074604
:1067D00098BF5FFA88F804F1C00ABFF35B8F5AE8EC
:1067E000003F01334AE80032002AF8D1BFF35B8F43
:1067F00000232B60A369F3B9C4E90555A378012BE5
:106800001CD1042107F10C0014F03DF9238808F095
:10681000FD0843EA083303803B8A043B438004239A
:106820003B763846FEF79EFA40B9FEF725FB68E74F
:1068300039463046BDE71D60A561DFE7BFF35B8FDA
:106840005AE8003F013B4AE80032002AF8D1BFF382
:106850005B8F294604F1140014F02AFE3846FDF738
:10686000BBFF20462946FFF749FCB9F80431094827
:10687000002B08BF002012F0A5F831462046039BEC
:10688000019A14F0FBFD1321204614F0D1FE38E7E5
:10689000B0000020B801002004060020F8B5031D58
:1068A0000446184614F0E4FD820419D5B4F8862095
:1068B000B4F88810914213D8B4F88A1091420FD3DB
:1068C000D4E9231291420BD1BFF35B8F53E8001F31
:1068D00021F4005143E80012002AF7D1BFF35B8F87
:1068E000104B1D686DB155F8046C143D3EB1B4F801
:1068F0008E30B4F88C20B4F886102046B0476D690D
:10690000F0E7094D094FBD4200D3F8BD2E693EB1F5
:10691000B4F88E30B4F88C20B4F886102046B04716
:106920001835F0E790120020E8DD010000DE0100DC
:106930002DE9F041074608460D4614F0E2FA0646F6
:1069400018B900263046BDE8F081144B1C6884B1AC
:1069500054F8083C143C0BB96469F8E729463846FA
:1069600098470028EDD0284614F0CBFA0028F3D140
:10697000E7E70B4CDFF82C804445E3D2E3680BB922
:106980001834F9E72946384698470028D9D02846D0
:1069900014F0B7FA0028F3D1D3E700BF901200201B
:1069A000E8DD010000DE010038B505460C460E4862
:1069B0000121FFF78DFCB0B1057223680367A3883E
:1069C000A0F87430A37980F8763001238370074BE8
:1069D000C0F8A430064BC0F8A830064BC0F8AC3065
:1069E000054BC0F8883038BD70090020116D0000DB
:1069F0005DB4010051B401001800280070B50546CF
:106A00000A480E4614F0D7FD044620B18378012BC6
:106A100004D0FFF739FD0024204670BD32462946D8
:106A200014F026FE0028F7D12046F2E77009002076
:106A3000F8B505460E480E46174614F0BCFD044650
:106A400020B18378012B03D0FFF71EFD00240DE059
:106A500036B13246294614F00BFE08B92046F3E75A
:106A6000A37ABB42FAD1237AAB42F7D12046F8BDD4
:106A70007009002038B5044608460D4614F041FA66
:106A800038B3154B93F8D830990707D4E37873B12E
:106A900029462046BDE8384000F0A0B994F895306A
:106AA0009A07F3D5201D14F0E3FC4304EED42946E5
:106AB000204614F015FE58B92B88A4F888306B884E
:106AC000A4F88A30AB88A4F89030EB88A4F8923010
:106AD00038BD6FF01500FBE7B0000020F7B510F8E7
